:020000040800F2
:1000000000000120C5020008CB020008CF02000852
:1000100041030008450300088D03000800000000AC
:10002000000000000000000000000000D5030008F0
:10003000D903000800000000DD0300088D1E000841
:10004000F1030008F1030008F1030008F1030008C0
:10005000F1030008F1030008B5110008D1110008F0
:10006000F1030008F1030008F1030008F1030008A0
:10007000F1030008F1030008F1030008F103000890
:10008000F1030008F1030008F1030008000000007C
:10009000000000000000000000000000F103000864
:1000A000F1030008F1030008F1030008F103000860
:1000B0002117000801180008D9180008F1030008EA
:1000C000F1030008F1030008F1030008F103000840
:1000D000F1030008D1270008F10300080000000028
:1000E000F1030008F1030008F1030008000000001C
:1000F000000000000000000000000000F103000804
:1001000000000000F1030008B1190008F103000825
:1001100000000000000000000000000000000000DF
:10012000F1030008F1030008F1030008F1030008DF
:10013000F1030008000000000000000000000000C3
:10014000000000000000000000000000F1030008B3
:10015000F1030008F1030008F10300081D2800085E
:10016000F1030008F1030008000000000000000097
:10017000000000000000000000000000000000007F
:1001800000000000F1030008000000000000000073
:10019000F103000800B583B000F0BAF9384B394AD2
:1001A0001360394A1360394900E02146384B9942BF
:1001B0000BD20A684B6801F10C0488689842F4D9A4
:1001C0001168196004330432F8E72E4B1A68314B7A
:1001D0009A4200D0FEE72C4B1A682F4B9A42F9D175
:1001E000274B2E4A13602E4A13602E4B05E0002049
:1001F000106004329342FAD80B462B4A934204D241
:10020000194651F8082B5B68F4E7244B1B6813B9B7
:10021000234B1B6803B1FEE700F086F9694601A88D
:1002200000F022F9214C224BE41AA4100025AC4224
:1002300014DC204C204BE41AA4100025AC4213DC43
:100240000099019802F0A0FD05461C4C1C4BE41AD5
:10025000A410002C0EDC284600F0E2F8144B53F8F2
:10026000253098470135E2E7134B53F8253098477E
:100270000135E3E7013C124B53F824309847E8E797
:10028000BABADECA0000002080000020F403000893
:100290000C040008785634123254769884000020FA
:1002A000980200200C0400081C0400081C0400082C
:1002B0001C0400081C0400081C0400081C0400089E
:1002C0001C04000808B5FFF765FF00BEFEE71EF03E
:1002D000040F0CBFEFF30880EFF309807146414A29
:1002E00010472DE9F04182B004468846124B5E6B00
:1002F0009F6B9D6A1B6B13F0020F03D00E4BDB6AE2
:10030000002B0CDB0D4800F0B7F8CDF800803B4621
:1003100032462946204600F00BF900BEFEE74BF6B8
:10032000AB6100F07FF90028ECD0034B4FF00042A6
:10033000DA6202B0BDE8F08100ED00E09439000817
:1003400000BEFEE71EF0040F0CBFEFF30880EFF3D2
:1003500009807146244A10472DE9F04182B00446D5
:100360008846084B5E6B9F6B9D6A074800F084F8D7
:10037000CDF800803B4632462946204600F0D8F8AA
:1003800000BEFEE700ED00E0A43900081EF0040FF7
:100390000CBFEFF30880EFF309807146134A104752
:1003A0002DE9F04182B004468846084B5E6B9F6B96
:1003B0009D6A074800F060F8CDF800803B46324661
:1003C0002946204600F0B4F800BEFEE700ED00E04C
:1003D000B039000800BEFEE700BEFEE700BEFEE743
:1003E00070470000E302000859030008A103000859
:0403F00000BEFEE766
:1003F400989E03080000002084000020989E0308B3
:100404000000001000000010840000209C02002066
:080414000000001000000010C0
:10042000FEE7000008B503460C4A12685AB10B4AB1
:100430001068033323F003030344094A934206D8A8
:10044000064A136008BD054A06491160EFE702F04D
:1004500099FD0C2303604FF0FF30F3E78800002084
:1004600000FC00209C02002001230360014B0B6074
:10047000704700BF040000200FB400B583B004AB88
:1004800053F8042B01938021064802F0ADFD0028AB
:1004900003DD0146034800F037F803B05DF804EBD4
:1004A00004B07047900000202DE9F04385B0044669
:1004B0000F4643560BB10E461EE004252846214642
:1004C000ABBE0446384605B0BDE8F08314F9011B05
:1004D00004AA1A4402F8101C0133AB42F6D304AA52
:1004E0001344002203F8102C4FF00408E94640465C
:1004F0004946ABBE8046761B002EE3D03546102E13
:1005000028BF10250023E8E708B5FFF7CDFF08BD99
:1005100008B500F097F8024A024B9A6008BD00BF88
:100520000000000800ED00E008B500F0ABF808BDE1
:10053000F8B504460D4617461E462748FFF79CFFB0
:1005400021682648FFF798FF61682548FFF794FF68
:10055000A1682448FFF790FFE1682348FFF78CFF6C
:1005600021692248FFF788FF61692148FFF784FF6E
:10057000A1692048FFF780FFE1691F48FFF77CFF72
:100580001E48FFF779FF29461D48FFF775FF1D4CF0
:10059000E16A1D48FFF770FF216B1C48FFF76CFFF5
:1005A000E16B1B48FFF768FF15F0800F0AD115F4C7
:1005B000004F0CD11748FFF75FFF06991648FFF769
:1005C0005BFFF8BD39461548FFF756FFEFE73146A8
:1005D0001348FFF751FFEDE7783800088838000826
:1005E00098380008A8380008B8380008C83800084B
:1005F000D8380008E8380008F8380008083900083A
:100600001439000800ED00E02439000834390008EE
:1006100044390008743900087C390008543900084E
:100620006439000883691A888A4201D00020704723
:100630000268033A012A03D802338361012070471C
:10064000002070470C4B1A6842F001021A6000212A
:1006500099601A6822F0847222F480321A60074A84
:100660005A601A6822F480221A60D960044B4FF055
:1006700000629A60704700BF0038024010300024CA
:1006800000ED00E0224B9B6803F00C03042B14D018
:10069000082B16D01BB11F4B1F4A1A6002E01D4BDE
:1006A0001D4A1A601A4B9B68C3F303131B4AD15CA3
:1006B000184A1368CB4013607047164B164A1A60ED
:1006C000F0E7134B5A685B6803F03F0312F4800FA6
:1006D00013D0114AB2FBF3F20D4B5B68C3F38813DE
:1006E00003FB02F30A4A5268C2F30142013252008C
:1006F000B3FBF2F3074A1360D4E7074AB2FBF3F205
:10070000034B5B68C3F3881303FB02F3EAE700BF04
:10071000003802400C0000200024F400C03900081A
:1007200008B54FF6F86001F052FB4FF6245001F087
:100730004EFB4FF6223001F04AFB4FF2227001F0DF
:1007400046FB4EF6247001F042FB4DF6F87001F0C6
:100750003EFB4FF43F4001F03AFB4FF4FE4001F006
:1007600036FB08BD08B54FF6246001F030FB4FF6AC
:10077000225001F02CFB4FF6223001F028FB4FF203
:10078000247001F024FB4EF6F87001F020FB4FF4CA
:100790005F4001F01CFB4FF43F4001F018FB4BF6AB
:1007A000FC7001F014FB08BD08B54FF6226001F0A3
:1007B0000EFB4FF6225001F00AFB4FF6243001F0F9
:1007C00006FB4FF2F87001F002FB4FF46F4001F0AE
:1007D000FEFA4FF45F4001F0FAFA4BF6FC7001F0BC
:1007E000F6FA4BF6047001F0F2FA08BD08B54FF6C0
:1007F000226001F0ECFA4FF6245001F0E8FA4FF6CF
:10080000F83001F0E4FA4FF4774001F0E0FA4FF4E9
:100810006F4001F0DCFA4DF6FC7001F0D8FA4BF6AF
:10082000047001F0D4FA4BF6087001F0D0FA08BD5C
:1008300008B54FF47E4001F0CAFA4FF6FC5001F0C3
:10084000C6FA4FF6043001F0C2FA4FF2087001F018
:10085000BEFA4EF6F07001F0BAFA4DF6087001F0EB
:10086000B6FA4BF6047001F0B2FA4BF6FC7001F0E8
:10087000AEFA08BD08B54FF6FC6001F0A8FA4FF6D5
:10088000045001F0A4FA4FF6083001F0A0FA4FF23C
:10089000F07001F09CFA4EF6087001F098FA4DF6EF
:1008A000047001F094FA4BF6FC7001F090FA4FF4EA
:1008B0003F4001F08CFA08BD08B54FF6046001F026
:1008C00086FA4FF6085001F082FA4FF6F03001F048
:1008D0007EFA4FF2087001F07AFA4EF6047001F0D9
:1008E00076FA4DF6FC7001F072FA4FF43F4001F0D9
:1008F0006EFA4BF6FC7001F06AFA08BD08B54FF6C7
:10090000086001F064FA4FF6F05001F060FA4FF61B
:10091000083001F05CFA4FF2047001F058FA4EF61C
:10092000FC7001F054FA4FF45F4001F050FA4BF6BE
:10093000FC7001F04CFA4BF6247001F048FA08BD47
:1009400008B54FF6F06001F042FA4FF6085001F09A
:100950003EFA4FF6043001F03AFA4FF2FC7001F023
:1009600036FA4FF46F4001F032FA4DF6FC7001F0A8
:100970002EFA4BF6247001F02AFA4BF6247001F09F
:1009800026FA08BD08B54FF6086001F020FA4FF6C8
:10099000045001F01CFA4FF6FC3001F018FA4FF445
:1009A000774001F014FA4EF6FC7001F010FA4DF6A3
:1009B000247001F00CFA4BF6247001F008FA4BF6A3
:1009C000587001F004FA08BD08B54FF6046001F054
:1009D000FEF94FF6FC5001F0FAF94FF47B4001F0BC
:1009E000F6F94FF2FC7001F0F2F94EF6247001F0C6
:1009F000EEF94DF6247001F0EAF94BF6587001F06B
:100A0000E6F94BF6807001F0E2F908BD08B54FF643
:100A1000FC6001F0DCF94FF47D4001F0D8F94FF6AD
:100A2000FC3001F0D4F94FF2247001F0D0F94EF609
:100A3000247001F0CCF94DF6587001F0C8F94BF66E
:100A4000807001F0C4F94FF43F4001F0C0F908BDD7
:100A500008B54FF47E4001F0BAF94FF6FC5001F0B2
:100A6000B6F94FF6243001F0B2F94FF2247001F0DC
:100A7000AEF94EF6587001F0AAF94DF6807001F00B
:100A8000A6F94FF43F4001F0A2F94BF6FC7001F0DB
:100A90009EF908BD08B54FF6FC6001F098F94FF6D5
:100AA000245001F094F94FF6243001F090F94FF200
:100AB000587001F08CF94EF6807001F088F94FF40F
:100AC0005F4001F084F94BF6FC7001F080F94BF6C1
:100AD000547001F07CF908BD08B54FF6246001F0B0
:100AE00076F94FF6245001F072F94FF6583001F0C4
:100AF0006EF94FF2807001F06AF94FF46F4001F027
:100B000066F94DF6FC7001F062F94BF6847001F065
:100B10005EF94BF6487001F05AF908BD08B54FF67A
:100B2000246001F054F94FF6585001F050F94FF697
:100B3000803001F04CF94FF4774001F048F94EF65F
:100B4000FC7001F044F94DF6847001F040F94BF669
:100B5000487001F03CF94BF6307001F038F908BDEF
:100B600008B54FF6586001F032F94FF6805001F0A9
:100B70002EF94FF47B4001F02AF94FF2FC7001F09E
:100B800026F94EF6847001F022F94DF6487001F016
:100B90001EF94BF6307001F01AF94FF43F4001F0A6
:100BA00016F908BD08B54FF6806001F010F94FF452
:100BB0007D4001F00CF94FF6FC3001F008F94FF2DE
:100BC000847001F004F94EF6487001F000F94DF61A
:100BD000307001F0FCF84FF43F4001F0F8F84BF6AC
:100BE000F47001F0F4F808BD08B54FF47E4001F050
:100BF000EEF84FF6FC5001F0EAF84FF6843001F0C1
:100C0000E6F84FF2487001F0E2F84EF6307001F06D
:100C1000DEF84FF45F4001F0DAF84BF6F47001F0C3
:100C2000D6F84FF43F4001F0D2F808BD08B54FF6B2
:100C3000FC6001F0CCF84FF6845001F0C8F84FF694
:100C4000483001F0C4F84FF2307001F0C0F84FF4B2
:100C50006F4001F0BCF84DF6F47001F0B8F84FF4B5
:100C60003F4001F0B4F84BF6F07001F0B0F808BD69
:100C700008B54FF6846001F0AAF84FF6485001F02D
:100C8000A6F84FF6303001F0A2F84FF4774001F0AB
:100C90009EF84EF6F47001F09AF84FF45F4001F0C0
:100CA00096F84BF6F07001F092F84BF6287001F0D0
:100CB0008EF808BD08B54FF6486001F088F84FF689
:100CC000305001F084F84FF47B4001F080F84FF28F
:100CD000F47001F07CF84FF46F4001F078F84DF6B5
:100CE000F07001F074F84BF6287001F070F84BF6D4
:100CF000247001F06CF808BD08B54FF6306001F0C3
:100D000066F84FF47D4001F062F84FF6F43001F0E0
:100D10005EF84FF4774001F05AF84EF6F07001F0AB
:100D200056F84DF6287001F052F84BF6247001F099
:100D30004EF84BF6287001F04AF808BD08B54FF49C
:100D40007E4001F044F84FF6F45001F040F84FF4C3
:100D50007B4001F03CF84FF2F07001F038F84EF6AD
:100D6000287001F034F84DF6247001F030F84BF69D
:100D7000287001F02CF84BF6F07001F028F808BD4F
:100D800008B54FF6F46001F022F84FF47D4001F011
:100D90001EF84FF6F03001F01AF84FF2287001F00B
:100DA00016F84EF6247001F012F84DF6287001F096
:100DB0000EF84BF6F07001F00AF84FF43F4001F0E6
:100DC00006F808BD08B54FF47E4001F000F84FF674
:100DD000F05000F0FCFF4FF6283000F0F8FF4FF223
:100DE000247000F0F4FF4EF6287000F0F0FF4DF68E
:100DF000F07000F0ECFF4FF43F4000F0E8FF4BF6DE
:100E0000FC7000F0E4FF08BD08B54FF6F06000F09C
:100E1000DEFF4FF6285000F0DAFF4FF6243000F0E6
:100E2000D6FF4FF2287000F0D2FF4EF6F07000F0BF
:100E3000CEFF4FF45F4000F0CAFF4BF6FC7000F0AD
:100E4000C6FF4BF6907000F0C2FF08BD08B54FF624
:100E5000286000F0BCFF4FF6245000F0B8FF4FF6BA
:100E6000283000F0B4FF4FF2F07000F0B0FF4FF404
:100E70006F4000F0ACFF4DF6FC7000F0A8FF4BF6A1
:100E8000907000F0A4FF4BF6F07000F0A0FF08BDDA
:100E900008B54FF6146000F09AFF4FF6F85000F0D6
:100EA00096FF4FF47B4000F092FF4FF4774000F044
:100EB0008EFF4EF6FE7000F08AFF4DF6927000F045
:100EC00086FF4BF65E7000F082FF4BF67C7000F000
:100ED0007EFF08BD08B54FF6F86000F078FF4FF4CC
:100EE0007D4000F074FF4FF47B4000F070FF4FF244
:100EF000FE7000F06CFF4EF6927000F068FF4DF649
:100F00005E7000F064FF4BF67C7000F060FF4FF401
:100F10003F4000F05CFF08BD08B5012205211046E6
:100F200000F064F901220821104600F05FF9012267
:100F30000921104600F05AF901220A21104600F05A
:100F400055F901220C21104600F050F901220D2123
:100F5000104600F04BF901220E21104600F046F930
:100F600001220F21104600F041F900231A46052105
:100F7000012000F07DF900231A460821012000F02D
:100F800077F900231A460921012000F071F90023A6
:100F90001A460A21012000F06BF900231A460C21A1
:100FA000012000F065F900231A460D21012000F010
:100FB0005FF900231A460E21012000F059F90023A1
:100FC0001A460F21012000F053F9002205210120CB
:100FD00000F0F0F900220821012000F0EBF90022D6
:100FE0000921012000F0E6F900220A21012000F089
:100FF000E1F900220C21012000F0DCF900220D2192
:10100000012000F0D7F900220E21012000F0D2F9D2
:1010100000220F21012000F0CDF908BD70B5044673
:101020000E462F4B01221A702E4B00221A602D4BB8
:101030001B68B3424FD2E25C02F00102052101209D
:1010400000F0B8F9274D2B68E25CC2F3400208219A
:10105000012000F0AFF92B68E25CC2F380020921A5
:10106000012000F0A7F92B68E25CC2F3C0020A215C
:10107000012000F09FF92B68E25CC2F300120C2102
:10108000012000F097F92B68E25CC2F340120D21B9
:10109000012000F08FF92B68E25CC2F380120E2170
:1010A000012000F087F92B68E25CD2090F210120B2
:1010B00000F080F97D2000F035FA0B4B1B78012BF6
:1010C00004D0084A136801331360B0E7FFF724FF28
:1010D000054B00221A70024B00221A7070BD00BF2F
:1010E00090020020100100209102002030B48308FB
:1010F0000A4A023352F8234000F0030080000F2513
:10110000854024EA050442F8234052F823408140F8
:10111000214342F8231030BC704700BF0038014023
:1011200011B1012908D0704708490B68012202FA61
:1011300000F018430860704704490B68012202FA66
:1011400000F023EA00000860704700BF003C014047
:1011500001290FD011B1022918D07047114B99689D
:10116000012202FA00F001439960DA6822EA0000E5
:10117000D86070470B4BD968012202FA00F0014396
:10118000D9609A6822EA000098607047054AD168E1
:10119000012303FA00F00143D16093681843906083
:1011A000704700BF003C0140014B1860704700BF12
:1011B0001401002008B5044B1B689847034A536983
:1011C00043F00103536108BD14010020003C0140BD
:1011D00008B5044B5B689847034A536943F0020320
:1011E000536108BD14010020003C014010B40128E7
:1011F00017D018B1022826D010BC7047A1F10D03FA
:10120000DBB2022BF8D9174B1868490003248C4035
:1012100020EA04001860186802FA01F1014319601D
:10122000EAE78B1EDBB2022BE6D90F4B18684900A8
:1012300003248C4020EA04001860186802FA01F1C7
:1012400001431960D8E7094B1868490003248C4012
:1012500020EA04001860186802FA01F101431960DD
:10126000CAE700BF0000024000040240000802403C
:1012700030B4012821D018B102283AD030BC7047D0
:10128000A1F10D00C0B20228F8D926484468012512
:101290008D4024EA0504446044688A402243426049
:1012A0008268490003248C4022EA0402826082683A
:1012B00003FA01F111438160E0E7881EC0B2022801
:1012C000DCD91948446801258D4024EA05044460AE
:1012D00044688A40224342608268490003248C406B
:1012E00022EA04028260826803FA01F111438160FC
:1012F000C4E70E48446801258D4024EA0504446093
:1013000044688A40224342608268490003248C403A
:1013100022EA04028260826803FA01F111438160CB
:10132000ACE700BF00000240000402400008024099
:1013300010B4012817D018B1022826D010BC70476D
:10134000A1F10D03DBB2022BF8D9174BD868490085
:1013500003248C4020EA0400D860D86802FA01F126
:101360000143D960EAE78B1EDBB2022BE6D90F4BB3
:10137000D868490003248C4020EA0400D860D8686B
:1013800002FA01F10143D960D8E7094BD868490056
:1013900003248C4020EA0400D860D86802FA01F1E6
:1013A0000143D960CAE700BF0000024000040240C8
:1013B0000008024010B4012815D018B1022822D02C
:1013C00010BC7047A1F10D03DBB2022BF8D9144B0E
:1013D000586901248C4020EA0400586158698A4009
:1013E00002435A61ECE78B1EDBB2022BE8D90D4BAE
:1013F000586901248C4020EA0400586158698A40E9
:1014000002435A61DCE7084B586901248C4020EA0A
:101410000400586158698A4002435A61D0E700BF0E
:10142000000002400004024000080240072926D8BC
:10143000012810D010B1022819D07047A1F10D0376
:10144000DBB2022B49D92548036A890002FA01F16F
:101450000B43036270478B1EDBB2022B3DD9204841
:10146000036A890002FA01F10B43036270471D48C9
:10147000036A890002FA01F1194301627047A1F180
:101480000803DBB2072B28D8012811D010B102289D
:101490001BD07047A1F10D03DBB2022B1DD90F4801
:1014A000436A0839890002FA01F119434162704721
:1014B0008B1EDBB2022B10D90948436A0839890018
:1014C00002FA01F11943416270470448436A08393E
:1014D000890002FA01F1194341627047000002409D
:1014E00000040240000802404FF080431A6822F0D6
:1014F00070021A601A6842F010021A601A6842F00C
:1015000080021A601A6842F004021A601A6822F017
:1015100002021A60DA6822F00102DA6007229A6297
:101520007047000010B44000204BA3FB0023DB0BEE
:10153000C3EB0344041B19E04FF080434FF6FF72E6
:10154000DA625A6942F001025A611A6842F00102F5
:101550001A604FF080431B6913F0010FF9D04FF070
:101560008042136923F0010313610B46591E002BBF
:10157000E2D14FF08043DC625A6942F001025A61C5
:101580001A6842F001021A604FF080431B6913F0A1
:10159000010FF9D04FF080431A6922F001021A615D
:1015A0001A6822F001021A6010BC704701800080A6
:1015B0000D4B1A6822F070021A601A6842F010028D
:1015C0001A601A6842F080021A601A6842F0040237
:1015D0001A601A6822F002021A60DA6822F0010228
:1015E000DA6007229A62704700040040184B1960C5
:1015F000184B01221A70184BA3FB0023DB0B174A70
:101600001360C3EB0343C11A154B196013688BB900
:10161000134B1A68134BDA625A6942F001025A619D
:101620001A6842F001021A600E4AD36843F00103BF
:10163000D36070470B4B4FF6FF72DA625A6942F083
:1016400001025A611A6842F001021A60ECE700BF19
:101650008C010020900100200180008068010020A2
:1016600064010020000400400D4B1A6822F0700253
:101670001A601A6842F010021A601A6842F080027A
:101680001A601A6842F004021A601A6822F0020214
:101690001A60DA6822F00102DA6007229A62704763
:1016A000000C0040184B1960184B01221A70184B9F
:1016B000A3FB0023DB0B174A1360C3EB0343C11AE0
:1016C000154B196013688BB9134B1A68134BDA6208
:1016D0005A6942F001025A611A6842F001021A6026
:1016E0000E4AD36843F00103D36070470B4B4FF6AB
:1016F000FF72DA625A6942F001025A611A6842F0D6
:1017000001021A60ECE700BF9C010020A00100204C
:1017100001800080800100207C010020000C00403E
:1017200008B5314B1B7833B1304B1A68304B1A6017
:101730002D4B00221A702E4B1B68012B11D92C4AFD
:101740001368013B13604FF080431A6922F00102D5
:101750001A614FF6FF72DA625A6942F001025A6169
:1017600008BD234B1B68012B26D0224B1B784BB99D
:101770004FF08043DA6822F00102DA601A6822F042
:1017800001021A601C4B1B6898474FF08042136996
:1017900023F001031361154B1B68FBB113464FF691
:1017A000FF72DA624FF08042536943F001035361E4
:1017B0000D4B01221A70D3E70D4A1368013B1360E9
:1017C0004FF080431A6922F001021A610B4A126835
:1017D000DA625A6942F001025A61C1E7074B1A689E
:1017E0004FF08043DA62DDE7100000205C0100204A
:1017F00054010020880100208401002058010020AD
:1018000008B52E4B1B7833B12D4B1A682D4B1A603F
:101810002A4B00221A702B4B1B68012B10D9294A26
:101820001368013B1360284B1A6922F001021A6108
:101830004FF6FF72DA625A6942F001025A6108BD3E
:10184000204B1B68012B23D0204B1B7843B91E4B28
:10185000DA6822F00102DA601A6822F001021A60E6
:101860001B4B1B689847184A136923F00103136147
:10187000134B1B68EBB113464FF6FF72DA62124A44
:10188000536943F0010353610C4B01221A70D6E7F0
:101890000C4A1368013B13600B4B1A6922F00102DA
:1018A0001A610C4A1268DA625A6942F001025A61FE
:1018B000C5E7084B1A68044BDA62E0E71100002024
:1018C0006801002060010020000400409001002019
:1018D0008C0100206401002008B52E4B1B7833B129
:1018E0002D4B1A682D4B1A602A4B00221A702B4B75
:1018F0001B68012B10D9294A1368013B1360284B40
:101900001A6922F001021A614FF6FF72DA625A690F
:1019100042F001025A6108BD204B1B68012B23D005
:10192000204B1B7843B91E4BDA6822F00102DA60C3
:101930001A6822F001021A601B4B1B689847184A6C
:10194000136923F001031361134B1B68EBB11346BA
:101950004FF6FF72DA62124A536943F00103536192
:101960000C4B01221A70D6E70C4A1368013B136036
:101970000B4B1A6922F001021A610C4A1268DA62F2
:101980005A6942F001025A61C5E7084B1A68044BD4
:10199000DA62E0E712000020740100206C010020F0
:1019A00000080040980100209401002070010020F0
:1019B00008B52E4B1B7833B12D4B1A682D4B1A608E
:1019C0002A4B00221A702B4B1B68012B10D9294A75
:1019D0001368013B1360284B1A6922F001021A6157
:1019E0004FF6FF72DA625A6942F001025A6108BD8D
:1019F000204B1B68012B23D0204B1B7843B91E4B77
:101A0000DA6822F00102DA601A6822F001021A6034
:101A10001B4B1B689847184A136923F00103136195
:101A2000134B1B68EBB113464FF6FF72DA62124A92
:101A3000536943F0010353610C4B01221A70D6E73E
:101A40000C4A1368013B13600B4B1A6922F0010228
:101A50001A610C4A1268DA625A6942F001025A614C
:101A6000C5E7084B1A68044BDA62E0E71300002070
:101A70008001002078010020000C0040A00100201F
:101A80009C0100207C01002008B5204B00221A7028
:101A90001F4B1A6842F20F739A422ED91C4B1A68D8
:101AA00043F698239A4228D8002309E0012202FA3B
:101AB00001F11648027822EA010202700133DBB21A
:101AC000072B17D8194603F11100114A52F82020AC
:101AD000B2F5FA6FEAD30E4A52F8200040F6FC0243
:101AE0009042E3D801229A40084801781143C9B2D4
:101AF0000170E3E7074B1B6898470023064A137001
:101B0000034A1360054A137008BD00BF9402002009
:101B1000A4010020700200206D0200206C02002051
:101B200008B1014A106070477002002010B5124BD6
:101B30001B7863B91149124800F09AF90E4B012243
:101B40001A70104B1B78DBB20A2B12D010BD00F0BC
:101B500087F90C4C2378DBB240080B4A42F823008B
:101B60000649074800F084F923780133DBB223707B
:101B7000E7E700BFEAE700BF6D020020891A00080E
:101B8000400D03006C020020A4010020084A1368E5
:101B900043F001031360064B1B6813F0020FFAD0E9
:101BA000034B9A6822F003029A609A689A60704721
:101BB0000038024004282BD8DFE800F0030B131B89
:101BC00023001448036B012202FA01F11943016357
:101BD00070471048436B012202FA01F11943416337
:101BE00070470C48036C012202FA01F119430164A9
:101BF00070470848436C012202FA01F1194341641D
:101C000070470448036D012202FA01F1194301658E
:101C1000704700BF0038024010B44409064951F82B
:101C2000243000F01F00012202FA00F0184341F8AE
:101C3000240010BC704700BF00E100E0054B1870A5
:101C4000054B064A1A60000240F0BF6040F40030C5
:101C500018607047740200200CED00E00000FA05E7
:101C60001E4B1B78033B042B36D8DFE803F0030C34
:101C700017222D000A01D2B200F1604000F5614048
:101C800080F800237047120142EA4112D2B200F1FB
:101C9000604000F5614080F800237047120142EA7D
:101CA0008112D2B200F1604000F5614080F800235B
:101CB0007047120142EAC112D2B200F1604000F551
:101CC000614080F8002370471201D2B200F16040F9
:101CD00000F5614080F80023704700BF74020020C7
:101CE000164B1A6822F07F021A601A6822F47F628B
:101CF00022F00F021A601A6822F0FF021A601A68B6
:101D000042F004021A601A6842F002021A601A686D
:101D100042F001021A601A6822F038021A601A684A
:101D20001A601A6842F400721A601A6842F48072EB
:101D30001A601A6842F040021A6070470030014091
:101D4000074B9B6813F0020FFAD0054BD860044B89
:101D50009B6813F0010FFAD0014BD86880B270472E
:101D60000030014008B5012208210020FFF73EFAAB
:101D700000231A4608211846FFF77AFA01220A21A1
:101D80000020FFF733FA00231A4608211846FFF710
:101D90006FFA012209210020FFF728FA00231A46D2
:101DA00008211846FFF764FA08BD08B501220A2188
:101DB0000020FFF7FFFA0120FFF7B4FB00220A2101
:101DC0001046FFF7F7FA0A20FFF7ACFB08BD38B55D
:101DD00005460F240BE045FA04F202F00102082147
:101DE0000020FFF7E7FAFFF7E0FF013C64B2002CA8
:101DF000F1DA012209210020FFF7DCFA0120FFF7C8
:101E000091FB002209211046FFF7D4FA0120FFF7C9
:101E100089FB38BD024A136823F00403136070473E
:101E200010E000E0044B586000229A601A6842F00B
:101E300001021A60704700BF10E000E010B10128F5
:101E400006D07047054A136843F0020313607047D9
:101E5000024A136823F002031360704710E000E0A9
:101E6000024B58689B68C01A704700BF10E000E042
:101E700008B5044B1960FFF7D5FF034B01221A7018
:101E800008BD00BF780200207502002008B5064B8F
:101E90001B6823B19847054B1B78012B00D008BD68
:101EA000014B00221A60FAE7780200207502002038
:101EB00010B5044601220C210020FFF77BFA2046D2
:101EC000FFF73EFF10BD10B5044600220C2110465E
:101ED000FFF770FA2046FFF733FF10BD08B5012267
:101EE0000B210020FFF782F901220C210020FFF7CF
:101EF0007DF900231A460B211846FFF7B9F9002394
:101F00001A460C211846FFF7B3F901220B210020D5
:101F1000FFF750FA6420FFF705FB00220B21104663
:101F2000FFF748FA6420FFF7FDFA01220B21002099
:101F3000FFF740FA6420FFF7F5FA01220B21002099
:101F4000FFF738FA6420FFF7EDFA00220B21104664
:101F5000FFF730FA6420FFF7E5FA01220B21002099
:101F6000FFF728FA7820FFF7DDFA1120FFF7ABFF23
:101F70006420FFF7D7FA3A20FFF7A5FF0520FFF707
:101F800097FF2920FFF79FFF08BD000038B50546E1
:101F90002A20FFF798FF0020FFF78AFF0020FFF7B5
:101FA00087FF0020FFF784FF7F20FFF781FF2B20B2
:101FB000FFF789FF0020FFF77BFF0020FFF778FF86
:101FC0000020FFF775FF9F20FFF772FF2C20FFF71F
:101FD0007AFF104B01221A700024B4F5A04F14D2DE
:101FE00035F81400000AFFF763FF15F81400FFF737
:101FF0005FFF094B1B78012B02D00134A4B2ECE740
:10200000FFF76CFF044B00221A70024B00221A707B
:1020100038BD00BF950200209602002008B54FF69B
:10202000FC60FFF7D4FE4FF62450FFF7D0FE4FF6CA
:10203000D830FFF7CCFE4FF47740FFF7C8FE4EF6DE
:10204000F070FFF7C4FE4DF62870FFF7C0FE4BF6A8
:102050002870FFF7BCFE47F6F070FFF7B8FE08BD2A
:1020600008B54FF62460FFF7B2FE4FF6D850FFF7E1
:10207000AEFE4FF47B40FFF7AAFE4FF2F070FFF781
:10208000A6FE4EF62870FFF7A2FE4DF62870FFF769
:102090009EFE4BF6F070FFF79AFE4FF4FE40FFF7FE
:1020A00096FE08BD08B54FF6D860FFF790FE4FF4D6
:1020B0007D40FFF78CFE4FF6F030FFF788FE4FF2C1
:1020C0002870FFF784FE4EF62870FFF780FE4DF66D
:1020D000F070FFF77CFE4FF43F40FFF778FE47F6C5
:1020E000B870FFF774FE08BD08B54FF47E40FFF7E7
:1020F0006EFE4FF6F050FFF76AFE4FF62830FFF7FE
:1021000066FE4FF22870FFF762FE4EF6F070FFF7A2
:102110005EFE4FF45F40FFF75AFE4BF6B870FFF7D4
:1021200056FE47F6A870FFF752FE08BD08B54FF6F9
:10213000F060FFF74CFE4FF62850FFF748FE4FF6D1
:102140002830FFF744FE4FF2F070FFF740FE4FF4E7
:102150006F40FFF73CFE4DF6B870FFF738FE4BF6C8
:10216000A870FFF734FE47F68470FFF730FE08BD15
:1021700008B54FF62860FFF72AFE4FF62850FFF704
:1021800026FE4FF6F030FFF722FE4FF47740FFF7C0
:102190001EFE4EF6B870FFF71AFE4DF6A870FFF758
:1021A00016FE4BF68470FFF712FE4FF4FE40FFF769
:1021B0000EFE08BD08B54FF62860FFF708FE4FF683
:1021C000F050FFF704FE4FF47B40FFF700FE4FF2A4
:1021D000B870FFF7FCFD4EF6A870FFF7F8FD4DF65E
:1021E0008470FFF7F4FD4FF43F40FFF7F0FD47F632
:1021F000F870FFF7ECFD08BD08B54FF6F060FFF78B
:10220000E6FD4FF47D40FFF7E2FD4FF6B830FFF7F3
:10221000DEFD4FF2A870FFF7DAFD4EF68470FFF78F
:10222000D6FD4FF45F40FFF7D2FD4BF6F870FFF795
:10223000CEFD47F62070FFF7CAFD08BD08B54FF484
:102240007E40FFF7C4FD4FF6B850FFF7C0FD4FF6D4
:10225000A830FFF7BCFD4FF28470FFF7B8FD4FF4D4
:102260006F40FFF7B4FD4DF6F870FFF7B0FD4BF689
:102270002070FFF7ACFD47F62070FFF7A8FD08BD02
:1022800008B54FF6B860FFF7A2FD4FF6A850FFF76C
:102290009EFD4FF68430FFF79AFD4FF47740FFF72D
:1022A00096FD4EF6F870FFF792FD4DF62070FFF7A1
:1022B0008EFD4BF62070FFF78AFD47F6F870FFF7AA
:1022C00086FD08BD08B54FF6A860FFF780FD4FF604
:1022D0008450FFF77CFD4FF47B40FFF778FD4FF211
:1022E000F870FFF774FD4EF62070FFF770FD4DF6A5
:1022F0002070FFF76CFD4BF6F870FFF768FD4FF4A8
:10230000FE40FFF764FD08BD08B54FF68460FFF797
:102310005EFD4FF47D40FFF75AFD4FF6F830FFF7B2
:1023200056FD4FF22070FFF752FD4EF62070FFF77A
:102330004EFD4DF6F870FFF74AFD4FF43F40FFF7B2
:1023400046FD47F66070FFF742FD08BD08B54FF443
:102350007E40FFF73CFD4FF6F850FFF738FD4FF693
:102360002030FFF734FD4FF22070FFF730FD4EF6BE
:10237000F870FFF72CFD4FF45F40FFF728FD4BF698
:102380006070FFF724FD47F69070FFF720FD08BD51
:1023900008B54FF47E40FFF71AFD4FF6F850FFF7EF
:1023A00016FD4FF62030FFF712FD4FF22070FFF7B9
:1023B0000EFD4EF6F870FFF70AFD4FF45F40FFF791
:1023C00006FD4BF66070FFF702FD47F69070FFF7D1
:1023D000FEFC08BD08B54FF6F860FFF7F8FC4FF6B5
:1023E0002050FFF7F4FC4FF62030FFF7F0FC4FF2DF
:1023F000F870FFF7ECFC4FF46F40FFF7E8FC4DF688
:102400006070FFF7E4FC4BF69070FFF7E0FC47F6D6
:102410009070FFF7DCFC08BD08B54FF62060FFF7B1
:10242000D6FC4FF62050FFF7D2FC4FF6F830FFF7FE
:10243000CEFC4FF47740FFF7CAFC4EF66070FFF712
:10244000C6FC4DF69070FFF7C2FC4BF69070FFF79C
:10245000BEFC47F66070FFF7BAFC08BD08B54FF642
:102460002060FFF7B4FC4FF6F850FFF7B0FC4FF4D4
:102470007B40FFF7ACFC4FF26070FFF7A8FC4EF614
:102480009070FFF7A4FC4DF69070FFF7A0FC4BF6A0
:102490006070FFF79CFC4FF4FE40FFF798FC08BD0E
:1024A00008B54FF6F860FFF792FC4FF47D40FFF758
:1024B0008EFC4FF66030FFF78AFC4FF29070FFF70A
:1024C00086FC4EF69070FFF782FC4DF66070FFF7C9
:1024D0007EFC4FF43F40FFF77AFC47F6E070FFF7D1
:1024E00076FC08BD08B54FF47E40FFF770FC4FF650
:1024F0006050FFF76CFC4FF69030FFF768FC4FF22E
:102500009070FFF764FC4EF66070FFF760FC4FF4CC
:102510005F40FFF75CFC4BF6E070FFF758FC4FF4B0
:10252000FF40FFF754FC08BD08B54FF66060FFF7A9
:102530004EFC4FF69050FFF74AFC4FF69030FFF7F5
:1025400046FC4FF26070FFF742FC4FF46F40FFF71C
:102550003EFC4DF6E070FFF73AFC4BF68070FFF75B
:1025600036FC4FF4FF40FFF732FC08BD08B54FF6CC
:102570009060FFF72CFC4FF69050FFF728FC4FF6C9
:102580006030FFF724FC4FF47740FFF720FC4EF655
:10259000E070FFF71CFC4DF68070FFF718FC4BF65F
:1025A0008070FFF714FC47F6E070FFF710FC08BDE1
:1025B00008B54FF69060FFF70AFC4FF66050FFF742
:1025C00006FC4FF47B40FFF702FC4FF2E070FFF790
:1025D000FEFB4EF68070FFF7FAFB4DF68070FFF7BA
:1025E000F6FB4BF6E070FFF7F2FB4FF4FE40FFF70F
:1025F000EEFB08BD08B54FF66060FFF7E8FB4FF44F
:102600007D40FFF7E4FB4FF6E030FFF7E0FB4FF2D1
:102610008070FFF7DCFB4EF68070FFF7D8FB4DF6BD
:10262000E070FFF7D4FB4FF43F40FFF7D0FB47F6D5
:10263000FC70FFF7CCFB08BD08B54FF47E40FFF7F8
:10264000C6FB4FF6E050FFF7C2FB4FF68030FFF7B6
:10265000BEFB4FF28070FFF7BAFB4EF6E070FFF75B
:10266000B6FB4FF45F40FFF7B2FB4BF6FC70FFF791
:10267000AEFB47F62470FFF7AAFB08BD08B54FF67E
:10268000E060FFF7A4FB4FF68050FFF7A0FB4FF68A
:102690008030FFF79CFB4FF2E070FFF798FB4FF4A0
:1026A0006F40FFF794FB4DF6FC70FFF790FB4BF685
:1026B0002470FFF78CFB47F6D870FFF788FB08BD46
:1026C00008B54FF68060FFF782FB4FF68050FFF7AA
:1026D0007EFB4FF6E030FFF77AFB4FF47740FFF7D1
:1026E00076FB4EF6FC70FFF772FB4DF62470FFF799
:1026F0006EFB4BF6D870FFF76AFB4FF4FE40FFF716
:1027000066FB08BD08B54FF68060FFF760FB4FF62B
:10271000E050FFF75CFB4FF47B40FFF758FB4FF2B4
:10272000FC70FFF754FB4EF62470FFF750FB4DF69C
:10273000D870FFF74CFB4FF43F40FFF748FB47F6DC
:10274000F070FFF744FB08BD08B54FF6E060FFF7F7
:102750003EFB4FF47D40FFF73AFB4FF6FC30FFF7AE
:1027600036FB4FF22470FFF732FB4EF6D870FFF7BE
:102770002EFB4FF45F40FFF72AFB4BF6F070FFF79C
:1027800026FB47F62870FFF722FB08BD08B54FF47B
:102790007E40FFF71CFB4FF6FC50FFF718FB4FF68F
:1027A0002430FFF714FB4FF2D870FFF710FB4FF403
:1027B0006F40FFF70CFB4DF6F070FFF708FB4BF690
:1027C0002870FFF704FB47F62870FFF700FB08BDF1
:1027D00008B50F4B1B6813F0400F09D00D4B1B6859
:1027E000022B00D098470A4A136823F04003136075
:1027F000074B1B6813F0200F09D0074B1B68022BF7
:1028000000D09847024A136823F02003136008BDE4
:102810000044004018000020140000207047000011
:102820000C4B01221A700C4B1B78DBB2182B0CD00E
:10283000452B02D00C2B04D07047084BFF221A7096
:102840007047064B01221A707047044B02221A701F
:10285000F2E700BF7E020020940200207F020020E9
:102860001F4B1B88012B06D0052B34D01C4A138824
:102870000133138070471B4B1B78012B09D01A4B77
:102880001B78012B1FD0022B21D0184B03221A706A
:10289000ECE7174B1B78012B07D0164B1B78012B4D
:1028A0000AD0104B00221A70E9E7134B01221A706C
:1028B0000F4B00221A70F4E7104B01221A700D4BD7
:1028C00000221A70EDE7094B01221A70CEE7074B80
:1028D00002221A70CAE7024B00221A80C6E700BF24
:1028E000820200207E0200207F0200208002002061
:1028F0009502002090020020960200209102002004
:1029000008B59F4B1B88042B10D89E4B1B78012BBE
:1029100006D0022B07D09A4A13880133138008BDD2
:10292000FFF77CFBF7E7FDF7FBFEF4E7092B10D878
:10293000944B1B78012B06D0022B07D0904A1388AA
:1029400001331380EBE7FFF78BFBF7E7FDF70AFF97
:10295000F4E70E2B10D88B4B1B78012B06D0022BE3
:1029600007D0874A138801331380D8E7FFF79AFB13
:10297000F7E7FDF719FFF4E7132B10D8814B1B780D
:10298000012B06D0022B07D07D4A13880133138018
:10299000C5E7FFF7A9FBF7E7FDF728FFF4E7182BDA
:1029A00010D8784B1B78012B06D0022B07D0744A25
:1029B000138801331380B2E7FFF7B8FBF7E7FDF7A1
:1029C00037FFF4E71D2B10D86E4B1B78012B06D078
:1029D000022B07D06A4A1388013313809FE7FFF761
:1029E000C7FBF7E7FDF746FFF4E7222B10D8654B4E
:1029F0001B78012B06D0022B07D0614A13880133C4
:102A000013808CE7FFF7D6FBF7E7FDF755FFF4E7F8
:102A1000272B10D85B4B1B78012B06D0022B07D03D
:102A2000574A13880133138079E7FFF7E5FBF7E78F
:102A3000FDF764FFF4E72C2B10D8524B1B78012BC9
:102A400006D0022B07D04E4A13880133138066E765
:102A5000FFF7F4FBF7E7FDF773FFF4E7312B10D82E
:102A6000484B1B78012B06D0022B07D0444A138811
:102A70000133138053E7FFF703FCF7E7FDF782FF0D
:102A8000F4E7362B10D83F4B1B78012B06D0022BD6
:102A900007D03B4A13880133138040E7FFF712FC4D
:102AA000F7E7FDF791FFF4E73B2B10D8354B1B7888
:102AB000012B06D0022B07D0314A13880133138033
:102AC0002DE7FFF721FCF7E7FDF7A0FFF4E7402B28
:102AD00010D82C4B1B78012B06D0022B07D0284A8C
:102AE0001388013313801AE7FFF730FCF7E7FDF78F
:102AF000AFFFF4E7452B10D8224B1B78012B06D0F3
:102B0000022B07D01E4A13880133138007E7FFF713
:102B10003FFCF7E7FDF7BEFFF4E74A2B10D8194B4F
:102B20001B78012B06D0022B07D0154A13880133DE
:102B30001380F4E6FFF74EFCF7E7FDF7CDFFF4E76F
:102B40004F2B10D80F4B1B78012B06D0022B07D030
:102B50000B4A138801331380E1E6FFF75DFCF7E7CA
:102B6000FDF7DCFFF4E7542B14D8064B1B78012B40
:102B70000AD0022B0BD0024A138801331380CEE611
:102B80007C02002080020020FFF768FCF3E7FDF7DD
:102B9000E7FFF0E7592B10D8794B1B78012B06D0B3
:102BA000022B07D0774A138801331380B7E6FFF76B
:102BB00077FCF7E7FDF7F6FFF4E75E2B10D8704BD4
:102BC0001B78012B06D0022B07D06E4A13880133E5
:102BD0001380A4E6FFF786FCF7E7FEF705F8F4E7B5
:102BE000632B10D8664B1B78012B06D0022B07D025
:102BF000644A13880133138091E6FFF795FCF7E7E9
:102C0000FEF714F8F4E7682B10D85D4B1B78012B06
:102C100006D0022B07D05B4A1388013313807EE66F
:102C2000FFF7A4FCF7E7FEF723F8F4E76D2B10D8C5
:102C3000534B1B78012B06D0022B07D0514A138827
:102C4000013313806BE6FFF7B3FCF7E7FEF732F8CA
:102C5000F4E7722B10D84A4B1B78012B06D0022BBD
:102C600007D0484A13880133138058E6FFF7C2FCA7
:102C7000F7E7FEF741F8F4E7772B10D8404B1B78C5
:102C8000012B06D0022B07D03E4A13880133138054
:102C900045E6FFF7D1FCF7E7FEF750F8F4E77C2BA9
:102CA00010D8374B1B78012B06D0022B07D0354AA2
:102CB00013880133138032E6FFF7E0FCF7E7FEF7F5
:102CC0005FF8F4E7812B10D82D4B1B78012B06D031
:102CD000022B07D02B4A1388013313801FE6FFF71E
:102CE000EFFCF7E7FEF76EF8F4E7862B10D8244BDD
:102CF0001B78012B06D0022B07D0224A1388013300
:102D000013800CE6FFF7FEFCF7E7FEF77DF8F4E72B
:102D10008B2B10D81A4B1B78012B06D0022B07D017
:102D2000184A138801331380F9E5FFF70DFDF7E723
:102D3000FEF78CF8F4E7902B10D8114B1B78012B81
:102D400006D0022B07D00F4A138801331380E6E523
:102D5000FFF71CFDF7E7FEF79BF8F4E7952B0AD881
:102D6000074B1B78022B01D1FEF7B4F8054A1388F4
:102D700001331380D3E5034B00221A80CFE500BF57
:102D8000800200207C02002008B5FEF7FFFE002133
:102D90000846FEF70FFF01210020FEF70BFFFFF7AB
:102DA00039F8FEF7B9F8012208210020FEF71EFAD3
:102DB00000231A4608211846FEF75AFA002102207D
:102DC000FEF7F8FEFEF790FB00210846FEF7F2FE44
:102DD000FEF7C8FF0C210320FEF7ECFEFEF780FF94
:102DE000022204210020FEF701FA02220521002020
:102DF000FEF7FCF9022206210020FEF7F7F9022275
:102E000007210020FEF7F2F9052204210020FEF739
:102E10000DFB052211460020FEF708FB05220621C6
:102E20000020FEF703FB052207210020FEF7FEFA33
:102E3000012202210020FEF7D9F900231A460221BF
:102E40001846FEF715FA012203210020FEF7CEF9FD
:102E500000231A4603211846FEF70AFAFFF73EF848
:102E60003D48FEF75DFE002211461046FEF7BEF912
:102E7000012200210846FEF75BFA00210846FEF712
:102E800035F93648FEF790F900210846FEF748F973
:102E900001210020FEF75CF901210220FEF78AFEE5
:102EA0000620FEF7B9FEFEF783FB02210846FEF777
:102EB00081FE03210220FEF77DFE1D20FEF7ACFE01
:102EC0003220FEF7A9FEFEF7A5FF0020FEF7B6FFB1
:102ED00003210220FEF76EFEFEF7C6FB3220FEF74E
:102EE0009BFE1F491F48FEF7DDFB1F4944F620608B
:102EF000FEF77CFB0320FEF7A1FE00221146062010
:102F0000FEF7AEFE002201211D20FEF7A9FE0022E1
:102F100002213220FEF7A4FEFF20FFF737F806E07B
:102F20001248FFF733F812491248FEF777F8124BB0
:102F30001B78012BF4D0022B05D0032BF7D1FF20F7
:102F4000FFF724F8F3E70D48FFF720F84EF214518D
:102F50000B48FEF763F8EAE7212800082D1B00085C
:102F600001290008A0860100612800085019020804
:102F70007E3F0100D0D9000880020020D03900082F
:102F800050B90208014B1868704700BF1C000020B0
:102F900030B5141E05469BB0184605DA8B232B600E
:102FA0004FF0FF301BB030BD4FF40273ADF80C3062
:102FB00014BF04F1FF332346029305934FF6FF73CA
:102FC00000910491ADF80E3002461E9B69462846DA
:102FD00000F072F8431CBCBF8B232B60002CE1D0A7
:102FE000009B00221A70DDE707B5009313460A46DE
:102FF000014603480068FFF7CBFF03B05DF804FB10
:103000001C0000202DE9F0478E689E4282460C4647
:103010009046994637D88A8912F4906F31D0256846
:1030200009696F1A6569022305EB450595FBF3F500
:1030300009F101033B449D4238BF1D46530530D57D
:10304000294600F07FFB064650B90C23CAF8003031
:10305000A38943F04003A3814FF0FF30BDE8F08720
:103060003A46216900F0FCFAA38923F4906343F007
:103070008003A381266165613E44ED1B2660A56047
:103080004E464E4500D94E4632464146206800F035
:10309000F2FAA3689B1BA36023681E4426600020ED
:1030A000DCE72A4600F0A8FB06460028E2D12169A9
:1030B000504600F0F9FAC8E72DE9F04F9DB0804680
:1030C00003938B891D060C4616460FD50B696BB909
:1030D000402100F037FB2060206128B90C23C8F89C
:1030E00000304FF0FF30C7E04023636100230993B5
:1030F00020238DF8293030238DF82A304FF0010B32
:1031000037463D4615F8013B0BB1252B3ED1B7EBB9
:10311000060A0BD05346324621464046FFF772FF5F
:10312000013000F0A480099B534409933B78002BA5
:1031300000F09D8000234FF0FF32CDE9052304937A
:1031400007938DF853301A932F46052217F8011B69
:103150004F4800F035FA049BD0B9D90644BF20226D
:103160008DF853201A0744BF2B228DF853202A785C
:103170002A2A15D0079A2F4600200A25394611F829
:10318000013B303B092B4DD9B8B10FE02F46B8E7D2
:103190003F4A801A0BFA00F0184304903D46D3E7EB
:1031A000039A111D12680391002A01DB079204E0C3
:1031B000524243F00203079204933B782E2B0CD12A
:1031C0007B782A2B33D1039B1A1D1B680392002B9B
:1031D000B8BF4FF0FF33023705932E4D39780322E5
:1031E000284600F0EDF938B14023401B03FA00F007
:1031F000049B034301370493397827488DF828103E
:1032000006227E1C00F0DCF9002838D0234B13BBCB
:10321000039B073323F0070308330393099B4B44B5
:1032200009936DE705FB023201200F46A6E7002354
:103230000137059319460A25384610F8012B303A14
:10324000092A03D9002BC8D00591C6E705FB012147
:1032500001230746F0E703AB00932246104B04A975
:103260004046AFF30080B0F1FF3F8146D6D1A3893D
:103270005B063FF536AF09981DB0BDE8F08F03AB94
:1032800000932246064B04A9404600F081F8EAE785
:10329000649E03086A9E03086E9E030800000000F7
:1032A000053000082DE9F04791461F468A680B69F2
:1032B000DDF820809342B8BF1346C9F8003091F87A
:1032C000432006460C4612B10133C9F8003023688A
:1032D000990642BFD9F800300233C9F8003025689A
:1032E00015F0060507D104F1190AE368D9F80020A2
:1032F0009B1AAB4228DC94F843302268003318BF95
:10330000012392062DD404F1430239463046C047CA
:10331000013020D02368E568D9F8002003F00603C7
:10332000042B08BFAD1AA36822690CBF25EAE57516
:1033300000259342C4BF9B1AED184FF000091A34C0
:103340004D451AD1002008E0012352463946304647
:10335000C047013003D14FF0FF30BDE8F0870135A1
:10336000C3E7E1185A1C302081F84300224494F846
:10337000451082F843100233C5E70123224639463F
:103380003046C0470130E6D009F10109D8E7000016
:103390002DE9F04301F1430C0C46097E85B06E29FE
:1033A0001746064698460C9A00F0B38022D8632947
:1033B00036D00AD8002900F0B980582900F083805F
:1033C00004F1420584F8421032E0642901D06929F1
:1033D000F6D120681368050603F104012AD51B689D
:1033E0001160002B03DA2D225B4284F843206F48E2
:1033F0000A2239E0732900F09D8008D86F2920D077
:103400007029DDD1236843F02003236003E0752990
:1034100017D07829D4D1782384F84530644855E012
:103420001368191D1B68116004F1420584F84230CD
:1034300001238CE01B68116010F0400F18BF1BB215
:10344000CFE713682568181D1060280601D51B6892
:1034500002E06806FBD51B8854486F2914BF0A2276
:103460000822002184F843106568A560002DC0F291
:103470009580216821F004012160002B3DD1002DB1
:1034800040F08E806546082A0BD12368DB0708D5FB
:10349000236962689A42DEBF302305F8013C05F1DA
:1034A000FF35ACEB05032361CDF800803B4603AA52
:1034B00021463046FFF7F6FE01304DD14FF0FF3088
:1034C00005B0BDE8F083394884F8451013682168D9
:1034D0001D1D1B6815600A060BD5CA0744BF41F0C5
:1034E000200121601BB9226822F0200222601022F4
:1034F000B7E74D0648BF9BB2EFE76546B3FBF2F175
:1035000002FB1133C35C05F8013D0B460029F5D1E0
:10351000B9E7136825686169181D106028061B68E3
:1035200001D5196002E06A06FBD5198000232361EA
:103530006546B9E71368191D11601D6862680021AE
:10354000284600F03DF808B1401B606063682361C5
:10355000002384F84330A7E723692A4639463046DA
:10356000C0470130AAD023689B0713D4E068039BAF
:103570009842B8BF1846A3E701234A463946304669
:10358000C04701309AD00135E368039A9B1AAB42D9
:10359000F2DCEBE7002504F11909F5E7002BACD1CB
:1035A000037884F8423004F142056CE7759E030805
:1035B000869E0308000000000000000000000000DC
:1035C00001F0FF01102A2BDB10F0070F08D010F8D4
:1035D000013B013A8B422DD010F0070F42B3F6D1D8
:1035E000F0B441EA012141EA014122F007047FF0F1
:1035F00000070023F0E80256083C85EA010586EA48
:10360000010685FA47F5A3FA87F586FA47F6A5FA83
:1036100087F68EB9EED1F0BC01F0FF0102F007028F
:1036200032B110F8013B013A83EA010313B1F8D13A
:103630000020704701387047002D06BF354603381B
:10364000073815F0010F07D1013015F4807F02BF54
:10365000013015F4C03F0130F0BC0138704700BFA5
:1036600010B5431E0A44914200D110BD11F8014B20
:1036700003F8014FF7E7884210B501EB020307D8C2
:10368000421E99420AD011F8014B02F8014FF8E7A7
:103690008342F5D98118D21AD34200D110BD13F854
:1036A000014D01F8014DF7E738B50546002945D031
:1036B00051F8043C0C1F002BB8BFE41800F0D2F8FE
:1036C0001F4A1368104633B9636014602846BDE88A
:1036D000384000F0C8B8A3420CD921686218934260
:1036E00004BF1A685B68636004BF521822600460FC
:1036F000ECE713465A680AB1A242FAD91968581879
:10370000A0420BD120680144581882421960DDD1D3
:10371000106852685A6001441960D7E702D90C2337
:103720002B60D3E7206821188A4204BF11685268D1
:10373000626004BF091821605C60C7E738BD00BF44
:103740008402002070B5CD1C25F0030508350C2D32
:1037500038BF0C25002D064601DBA94203D90C23F6
:103760003360002070BD00F07DF8214A14682146C6
:1037700091B9204C23681BB9304600F063F82060F3
:103780002946304600F05EF8431C24D10C233360F8
:10379000304600F068F8E4E70B685B1B18D40B2B8D
:1037A0000FD90B60CD50CC18304600F05CF804F116
:1037B0000B00231D20F00700C31AD3D05A42E25059
:1037C000D0E78C424B6816BF636013600C46EBE792
:1037D0000C464968CCE7C41C24F00304A04205D081
:1037E000211A304600F02EF80130CFD02560DBE7FB
:1037F0008402002088020020F8B5074614460E46D1
:1038000021B91146BDE8F840FFF79CBF22B9FFF788
:103810004BFF25462846F8BD00F026F8A0420FD2FF
:1038200021463846FFF78EFF05460028F2D0314684
:103830002246FFF715FF31463846FFF735FFE9E727
:103840003546E7E738B5064C0023054608462360B1
:10385000FCF7E8FD431C02D1236803B12B6038BD9F
:103860008C0200207047704751F8043C181F002B51
:10387000BCBF0B58C0187047537461636B206672ED
:10388000616D653A0A000000205230203D2020255D
:103890003038580A00000000205231203D202025F9
:1038A0003038580A00000000205232203D202025E8
:1038B0003038580A00000000205233203D202025D7
:1038C0003038580A0000000020523132203D2025B7
:1038D0003038580A00000000204C52203D2020259E
:1038E0003038580A00000000205043203D20202599
:1038F0003038580A0000000020505352203D202547
:103900003038580A000000004653522F4641523AC0
:103910000A0000002043465352203D202025303825
:10392000580A00002048465352203D2020253038B8
:10393000580A00002044465352203D2020253038AC
:10394000580A00002041465352203D20202530389F
:10395000580A0000204D4D464152203D2025303868
:10396000580A00002042464152203D202025303890
:10397000580A00004D6973630A000000204C522F62
:103980004558435F52455455524E3D2025303858D6
:103990000A0000005B486172644661756C745D0AE0
:1039A000000000005B4275734661756C745D0A002F
:1039B0005B55736167654661756C745D0A00000054
:1039C00000000000000000000102030406070809CF
:1039D000559D76A576A556A5559D359D1595F494CE
:1039E000F494D494D48CD48CB48CB38C938C938472
:1039F000B384938493849384937C72849384B38CF0
:103A0000D48CB38C7AC69FEF5EE75EE77EE73DDF3E
:103A10005EE75EDF3DDF3DDF5EDF5EDF5EDF5EDFF8
:103A20003EDF3EDF3EDF3EDF3EDF3EDF3EDF3EDFAE
:103A30005EDF5EDF5EDF5EDF5EDF5EDF5EDF5EDF9E
:103A40005EDF5EDF5EDF5EDF5EDF5EDF5EDF5EDF8E
:103A50005EDF5EDF5EDF5EDF5EDF5EDF5EDF5EDF7E
:103A60005EDF5EDF5EDF3EDF3EDF3EDF3EDF3EDF0E
:103A70005EDF5EDF5EDF5EDF5EDF5EDF5EDF5EDF5E
:103A80005EDF5EDF5EDF5EDF5EDF5EDF5EDF5EDF4E
:103A90005EDF5EE75EE75EE77EE77EE77EE77EE786
:103AA0007EE77EE77EE77EE77EE77EE77EE77EE7EE
:103AB0007EE77EE77EE77EE77EE77EE77EE77EE7DE
:103AC0007EE77EE79EE79EE79EE79EE79EE79EE70E
:103AD000359D359D55A576A576A576A5569D559D12
:103AE0001595F594F494D494D494D48CD48CD48C2B
:103AF000B384B384B384B384B38493849384B3844E
:103B0000B384F49415957AC69FE75EE75EE75EE7B7
:103B10005EE75EE75EDF5EDF5EDF3EDF3EDF3EDF0D
:103B20003EDF3EDF3EDF3EDF3EDF3EDF3EDF3EDFAD
:103B30005EDF5EDF5EDF5EDF5EDF5EDF5EDF5EDF9D
:103B40005EDF5EDF5EDF5EDF5EDF5EDF5EDF5EDF8D
:103B50005EDF5EDF5EDF5EDF5EDF5EDF5EDF5EDF7D
:103B60005EDF5EDF5EDF3EDF3EDF3EDF3EDF3EDF0D
:103B70005EDF5EDF5EDF5EDF5EDF5EDF5EDF5EDF5D
:103B80005EDF5EDF5EDF5EDF5EDF5EDF5EDF5EDF4D
:103B90005EDF5EDF5EE75EE77EE77EE77EE77EE78D
:103BA0007EE75EE75EE75EE75EE77EE77EE77EE76D
:103BB0007EE77EE77EE77EE77EE77EE77EE77EE7DD
:103BC0007EE77EE79EE79EE79EE79EE79EE79EE70D
:103BD000D38CD48C14951595359D559D569D559D2A
:103BE000569D569D359D15951595F494F494D48C59
:103BF000D48CD48CD48CD48CD48CD48CB48CB38C06
:103C0000B38CB38C9384159DBBCE7EE73EDF7EE7FD
:103C10005EDF5EE75EE75EE75EDF3EDF3EDF3EDF04
:103C20003EDF3EDF3EDF3EDF3EDF3EDF3EDF3EDFAC
:103C30005EDF5EDF5EDF5EDF5EDF5EDF5EDF5EDF9C
:103C40005EDF5EDF5EDF5EDF5EDF5EDF5EDF5EDF8C
:103C50005EDF5EDF5EDF5EDF5EDF5EDF5EDF5EDF7C
:103C60005EDF5EDF5EDF3EDF3EDF3EDF3EDF3EDF0C
:103C70005EDF5EDF5EDF5EDF5EDF5EDF5EDF5EDF5C
:103C80005EDF5EDF5EDF5EDF5EDF5EDF5EDF5EDF4C
:103C90005EDF5EDF5EDF5EE75EE75EE77EE77EE7D4
:103CA0005EE75EE75EE75EE75EE75EE75EE75EE7EC
:103CB0007EE77EE77EE77EE77EE77EE77EE77EE7DC
:103CC0007EE77EE79EE79EE79EE79EE79EE79EE70C
:103CD00072849284B384B38CD48CF4941495159527
:103CE000359D569D569D569D569D359D1595F49432
:103CF0001595F594D48CD48CD48CD48CD48CB38C72
:103D0000D48C9384F494938C159DBCCE7EE75EE7AF
:103D10005EDF5EDF5EDF3EDF5EDF5EE75EE75EDFCB
:103D20003EDF3EDF3EDF3EDF3EDF3EDF3EDF3EDFAB
:103D30005EDF5EDF5EDF5EDF5EDF5EDF5EDF5EDF9B
:103D40005EDF5EDF5EDF5EDF5EDF5EDF5EDF5EDF8B
:103D50005EDF5EDF5EDF5EDF5EDF5EDF5EDF5EDF7B
:103D60005EDF5EDF5EDF3EDF3EDF3EDF3EDF3EDF0B
:103D70003EDF5EDF5EDF5EDF5EDF5EDF5EDF5EDF7B
:103D80005EDF5EDF5EDF5EDF5EDF5EDF5EDF5EDF4B
:103D90005EDF5EDF5EDF5EDF5EE75EE75EE75EE71B
:103DA0007EE75EE75EE75EE75EE75EE75EE75EE7CB
:103DB0007EE77EE77EE77EE77EE77EE77EE77EE7DB
:103DC0007EE77EE79EE79EE77EE77EE79EE79EE74B
:103DD000527C7284728472849284B38CD48CD48C1E
:103DE000D48CF48C1595359D359D569D359D359D0E
:103DF00015951595F494D48CD48CD48CB48CB38C48
:103E0000B38CF48CD48CD48C7284569D1DD77EE7F1
:103E10005EE75EE73EDF3DDF3EDF5EE75EE73DDF1C
:103E20003EDF3EDF3EDF3EDF3EDF3EDF3EDF3EDFAA
:103E30005EDF5EDF5EDF5EDF5EDF5EDF5EDF5EDF9A
:103E40005EDF5EDF5EDF5EDF5EDF5EDF5EDF5EDF8A
:103E50005EDF5EDF5EDF5EDF5EDF5EDF5EDF5EDF7A
:103E60005EDF5EDF5EDF3EDF3EDF3EDF3EDF3EDF0A
:103E70003EDF3EDF3EDF5EDF5EDF5EDF5EDF5EDFBA
:103E80005EDF5EDF5EDF5EDF5EDF5EDF5EDF5EDF4A
:103E90005EDF5EDF5EDF5EDF5EDF5EE75EE75EE722
:103EA0007EE75EE75EE75EE75EE77EE77EE77EE76A
:103EB0007EE77EE77EE77EE77EE77EE77EE77EE7DA
:103EC0007EE77EE79EE79EE77EE77EE79EE79EE74A
:103ED000517C527C527C517C527C72849384B3849A
:103EE000B38CB38CD48CD48CF48CF4941595159538
:103EF00015951595159515951595F594F48CD48C07
:103F0000D48CD48CB38CD48CD48C938497A55EDF62
:103F10007EE77EE75EE73DDF3EDF5EE75EDF3DDFBB
:103F20003EDF3EDF3EDF3EDF3EDF3EDF3EDF3EDFA9
:103F30005EDF5EDF5EDF5EDF5EDF5EDF5EDF5EDF99
:103F40005EDF5EDF5EDF5EDF5EDF5EDF5EDF5EDF89
:103F50005EDF5EDF5EDF5EDF5EDF5EDF5EDF5EDF79
:103F60005EDF5EDF5EDF3EDF3EDF3EDF3EDF3EDF09
:103F70003EDF3EDF3EDF3EDF5EDF5EDF5EDF5EDFD9
:103F80005EDF5EDF5EDF5EDF5EDF5EDF5EDF5EDF49
:103F90005EDF5EDF5EDF5EDF5EDF5EDF5EDF5EE731
:103FA0007EE75EE75EE75EE77EE77EE77EE77EE749
:103FB0005EE75EE77EE77EE77EE77EE77EE77DE71A
:103FC0007EE77EE77EE77EE77EE77EE79EE79EE789
:103FD000517C527C527C527C527C527C727C72842A
:103FE000B38CB38CB38CB38CB384B38CB38CD48CC0
:103FF000D494F59415951595159515951595F494F6
:10400000F494D48CD48CD38CF48CB38493845ABE23
:104010005EDF5EE75EE75EE73EDF5EDF5EDF3DDFE1
:104020003EDF3EDF3EDF3EDF3EDF3EDF3EDF3EDFA8
:104030003EDF3EDF3EDF3EDF3EDF3EDF3EDF3EDF98
:104040005EDF5EDF5EDF5EDF5EDF5EDF5EDF5EDF88
:104050005EDF5EDF5EDF5EDF5EDF5EDF5EDF5EDF78
:104060005EDF5EDF5EDF3EDF3EDF3EDF3EDF3EDF08
:104070003EDF3EDF3EDF3EDF5EDF5EDF5EDF5EDFD8
:104080003EDF5EDF5EDF5EDF5EDF5EDF5EDF5EDF68
:104090005EDF5EDF5EDF5EDF5EDF5EDF5EDF5EDF38
:1040A0007EE75EE75EE75EE75EE75EE75EE75EE7C8
:1040B0005EE75EE75EE77EE77EE77EE77EE77EE738
:1040C0007EE77EE77EE77EE77EE77EE79EE79EE788
:1040D000727C728472847284727C727C527C527C98
:1040E000728472849384B384B38CB38CD48CD48C58
:1040F000938CB38CD48CD48CD48CF4941595159566
:10410000F494359DF48CF48CD38C9384D48CD48C1F
:104110001DDF5EDF7EE75EE75EDF5EE75EE75EE7B0
:104120003EDF3EDF3EDF3EDF3EDF3EDF3EDF3EDFA7
:104130003EDF3EDF3EDF3EDF3EDF3EDF3EDF3EDF97
:104140005EDF5EDF5EDF5EDF5EDF5EDF5EDF5EDF87
:104150005EDF5EDF5EDF5EDF5EDF5EDF5EDF5EDF77
:104160005EDF5EDF5EDF3EDF3EDF3EDF3EDF3EDF07
:104170003EDF3EDF3EDF3EDF3EDF5EDF5EDF5EDFF7
:104180003EDF3EDF5EDF5EDF5EDF5EDF5EDF5EDF87
:104190005EDF5EDF5EDF5EDF5EDF5EDF5EDF5EDF37
:1041A0005EE75EE75EE75EE75EE75EE75EE75EE7E7
:1041B0005EE75EE75EE77EE77EE77EE77EE77EE737
:1041C0007EE77EE77EE77EE77EE77EE79EE79EE787
:1041D0009384938472847284727C527C527C727C4D
:1041E000527C527C527C728493849384B38CB38CC3
:1041F0009384938CB38CB48CD48CD48CD48CD48C8A
:10420000B38CF48C14951595F48CD48CB384B3844E
:1042100076A53DDF7EE73DDF7EE75EE75EDF5EDFC2
:104220005EDF5EDF3EDF3EDF3EDF3EDF3EDF5EDF46
:104230003EDF3EDF3EDF3EDF3EDF5EDF5EDF5EDF36
:104240005EDF5EDF5EDF5EDF5EDF5EDF5EDF5EDF86
:104250005EDF5EDF5EDF5EDF5EDF5EDF5EDF5EDF76
:104260005EDF5EDF5EDF5EDF5EDF5EDF3EDF3EDFA6
:104270003EDF3EDF3EDF3EDF3EDF3EDF3EDF3EDF56
:104280005EDF5EDF5EDF5EDF5EDF5EDF5EDF5EDF46
:104290005EDF5EDF5EDF5EDF5EDF5EDF5EDF5EDF36
:1042A0005EE75EE75EE75EE77EE77EE75EE75EE7A6
:1042B0007EE77EE77EE77EE77EE77EE77EE77EE7D6
:1042C0007EE77EE77EE77EE77EE77EE77EE79EE7A6
:1042D000727C527C527C527C527C527C527C527C4E
:1042E000527C527C527C527C72847284728493849D
:1042F0009384938493849384938CB38CD48CD48C44
:10430000F494D48C93849384B38CD48CD48CD48C38
:10431000B38C39BE9FEF7EE71DDF5EE73EDF5EE7D1
:104320005EDF5EDF3EDF3EDF3EDF3EDF3EDF5EDF45
:104330003EDF3EDF3EDF3EDF5EDF5EDF5EDF5EDF15
:104340005EDF5EDF5EDF5EDF5EDF5EDF5EDF5EDF85
:104350005EDF5EDF5EDF5EDF5EDF5EDF5EDF5EDF75
:104360005EDF5EDF5EDF5EDF5EDF5EDF3EDF3EDFA5
:104370003EDF3EDF3EDF3EDF3EDF3EDF3EDF3EDF55
:104380005EDF5EDF5EDF5EDF5EDF5EDF5EDF5EDF45
:104390005EDF5EDF5EDF5EDF5EDF5EDF5EDF5EDF35
:1043A0005EE75EE75EE75EE75EE75EE75EE75EE7E5
:1043B0005EE75EE75EE75EE77EE77EE77EE77EE755
:1043C0007EE77EE77EE77EE77EE77EE77EE79EE7A5
:1043D0003174117411741174117411743174317C4D
:1043E000317C317C527C527C727C72847284728407
:1043F000938493847384728472849384B384B38C1F
:10440000F494F494F48CB38C938493849384B48C58
:10441000938C159DDCD69FE73EDF5EE75EE75EE7A7
:104420005EDF5EDF5EDF3EDF3EDF3EDF3EDF5EDF24
:104430003EDF3EDF3EDF3EDF5EDF5EDF5EDF5EDF14
:104440005EDF5EDF5EDF5EDF5EDF5EDF5EDF5EDF84
:104450005EDF5EDF5EDF5EDF5EDF5EDF5EDF5EDF74
:104460005EDF5EDF5EDF5EDF5EDF5EDF3EDF3EDFA4
:104470003EDF3EDF3EDF3EDF3EDF3EDF3EDF3EDF54
:104480005EDF5EDF5EDF5EDF5EDF5EDF5EDF5EDF44
:104490005EDF5EDF5EDF5EDF5EDF5EDF5EDF5EDF34
:1044A0005EDF5EE75EE75EE75EE75EE75EE75EE7EC
:1044B0005EE75EE75EE75EE75EE75EE77EE77EE794
:1044C0007EE77EE77EE77EE77EE77EE77EE79EE7A4
:1044D000D06BD06BD06BD06BD06BD06BF073117492
:1044E000117411743174517C527C527C727C727CD8
:1044F000728472847384738472847284728472840A
:10450000B384F48C15951595D48C93847284727C45
:10451000B38C938C76A53EDF9FEF3DDF5EE73EDFF9
:104520005EE75EDF5EDF3EDF3EDF3EDF3EDF5EDF1B
:104530003EDF3EDF3EDF5EDF5EDF5EDF5EDF5EDFF3
:104540005EDF5EDF5EDF5EDF5EDF5EDF5EDF5EDF83
:104550005EDF5EDF5EDF5EDF5EDF5EDF5EDF5EDF73
:104560005EDF5EDF5EDF5EDF5EDF5EDF3EDF3EDFA3
:104570003EDF3EDF3EDF3EDF3EDF3EDF3EDF3EDF53
:104580005EDF5EDF5EDF5EDF5EDF5EDF5EDF5EDF43
:104590005EDF5EDF5EDF5EDF5EDF5EDF5EDF5EDF33
:1045A0005EDF5EE75EE75EE75EE75EE75EE75EE7EB
:1045B0005EE75EE75EE75EE75EE75EE77EE77EE793
:1045C0007EE77EE77EE77EE77EE77EE77EE77EE7C3
:1045D0008F638F638F638F63AF63AF6BD06BD06B71
:1045E000F06BF06BF06B11741174117431743174E1
:1045F000317C527C728472847284727C527C727CB4
:1046000072847384B384F49435953595D48C9384F3
:1046100073847284B38C39BE7EE75EE75EE73EDF6B
:104620005EE75EE75EDF3EDF3EDF3EDF3EDF5EDF12
:104630003EDF5EDF5EDF5EDF5EDF5EDF5EDF5EDFB2
:104640005EDF5EDF5EDF5EDF5EDF5EDF5EDF5EDF82
:104650005EDF5EDF5EDF5EDF5EDF5EDF5EDF5EDF72
:104660005EDF5EDF5EDF5EDF5EDF5EDF3EDF3EDFA2
:104670003EDF3EDF3EDF3EDF3EDF3EDF3EDF3EDF52
:104680005EDF5EDF5EDF5EDF5EDF5EDF5EDF5EDF42
:104690005EDF5EDF5EDF5EDF5EDF5EDF5EDF5EDF32
:1046A0005EDF5EE75EE75EE75EE75EE75EE75EE7EA
:1046B0005EE75EE75EE75EE75EE77EE77EE77EE772
:1046C0007EE77EE77EE77EE77EE77EE77EE77EE7C2
:1046D0004E5B6E5B6E5B6E5B8F638F63AF6BB06BBD
:1046E000D06BD06BD06BF06BF06BF06BF06B107429
:1046F00011741174317C317C527C527C727C7284D6
:10470000527C527C727C9384D48CF5941595F594EC
:10471000B38CB38C7384D48C7BC6DFF77FE75EE702
:104720005EE75EE75EDF5EDF3EDF3EDF3EDF3EDF11
:104730005EDF5EDF5EDF5EDF5EDF5EDF5EDF5EDF91
:104740005EDF5EDF5EDF5EDF5EDF5EDF5EDF5EDF81
:104750005EDF5EDF5EDF5EDF5EDF5EDF5EDF5EDF71
:104760005EDF5EDF5EDF5EDF5EDF5EDF3EDF3EDFA1
:104770003EDF3EDF3EDF3EDF3EDF3EDF3EDF3EDF51
:104780005EDF5EDF5EDF5EDF5EDF5EDF5EDF5EDF41
:104790005EDF5EDF5EDF5EDF5EDF5EDF5EDF5EDF31
:1047A0005EDF5EE75EE75EE75EE75EE75EE75EE7E9
:1047B0005EE75EE75EE75EE75EE77EE77EE77EE771
:1047C0007EE77EE75EE77EE77EE77EE77EE77EE7E1
:1047D0006E5B6E5B4E5B4E5B6E638F638F638F634E
:1047E000B06BCF6BD06BD06BD06BD06BF06BF06BD2
:1047F000F073F073F07311743174317C527C527C1D
:10480000527C527C727C527C527C7284B38CF494C5
:10481000F494D48C938C738497ADDCD63DDF7EE723
:104820005EE75EE75EDF5EDF3EDF3EDF3EDF3EDF10
:104830005EDF5EDF5EDF5EDF5EDF5EDF5EDF5EDF90
:104840005EDF5EDF5EDF5EDF5EDF5EDF5EDF5EDF80
:104850005EDF5EDF5EDF5EDF5EDF5EDF5EDF5EDF70
:104860005EDF5EDF5EDF5EDF5EDF5EDF3EDF3EDFA0
:104870003EDF3EDF3EDF3EDF3EDF3EDF3EDF3EDF50
:104880005EDF5EDF5EDF5EDF5EDF5EDF5EDF5EDF40
:104890005EDF5EDF5EDF5EDF5EDF5EDF5EDF5EDF30
:1048A0005EDF5EE75EE75EE75EE75EE75EE75EE7E8
:1048B0005EE75EE75EE75EE75EE75EE75EE75EE7D0
:1048C0005EE75EE75EE75EE77EE77EE77EE77EE740
:1048D0006F636F636E5B4E5B6E5B8F638F636E6344
:1048E0008F638F638F63AF63AF63AF63D06BD06B46
:1048F000D06BD06BF07311741174317C31741174FE
:10490000317C317C3174317C527C7284728472844B
:104910007384B48CF59456A5F594F5945AC67EE745
:104920005EE75EE75EE75EDF3EDF3EDF3EDF3EDF07
:104930005EDF5EDF5EDF5EDF5EDF5EDF5EDF5EDF8F
:104940005EDF5EDF5EDF5EDF5EDF5EDF5EDF5EDF7F
:104950005EDF5EDF5EDF5EDF5EDF5EDF5EDF5EDF6F
:104960005EDF5EDF5EDF5EDF5EDF5EDF3EDF3EDF9F
:104970003EDF3EDF3EDF3EDF3EDF3EDF3EDF3EDF4F
:104980005EDF5EDF5EDF5EDF5EDF5EDF5EDF5EDF3F
:104990005EDF5EDF5EDF5EDF5EDF5EDF5EDF5EDF2F
:1049A0005EDF5EE75EE75EE75EE75EE75EE75EE7E7
:1049B0005EE75EE75EE75EE75EE75EE75EE75EE7CF
:1049C0005EE75EE75EE75EE77EE77EE77EE77EE73F
:1049D000B06B8F638F636F636F636F636F636F63BE
:1049E0006F636F638F63B063B06BAF63B06BD06B9B
:1049F000AF6BD06BF06BD06BD06BF0731174117424
:104A0000F17311743174117411743174527C527CCD
:104A100092849384938415951595F594159577A5AF
:104A20003EDF7EE77EE75EE75EE73DDF3EDF3EE7B7
:104A30003DDF3DDF3DDF3DDF3DDF5EDF5EDF5EDF33
:104A40003EDF3EDF5EDF5EDF5EDF5EDF5EDF5EDFBE
:104A50005EDF5EDF5EDF5EDF5EDF5EDF5EDF5EDF6E
:104A60005EE75EDF5EDF5EDF5EDF3EDF3EDF3EDFB6
:104A70005EDF5EDF5EDF3EDF3EDF3EDF3EDF3EDFEE
:104A80003EDF3EDF5EDF5EDF5EDF5EDF5EDF5EDF7E
:104A90005EDF5EDF5EDF5EDF5EDF5EDF5EDF5EDF2E
:104AA0005EDF5EDF5EDF5EDF5EDF5EDF5EE75EE70E
:104AB0005EE75EE75EE75EE75EE75EE75EE75EE7CE
:104AC0007EE77EE77EE77EE77EE77EE77DE77DE7C0
:104AD000D06BD06BD06BD06BD06BAF6B8F636E63D2
:104AE0006F636E5B6E638F63AF63AF63AF638F6340
:104AF000AF63D06BD06BD06BB06BD06BD06BD06B27
:104B0000D06BF06BF06BF06BD06BF1733174317C68
:104B1000317C317C527CB48CF594F594369DD8ADC3
:104B20007AC61DDF5DDF3DDF5EE75EE73EDF3EE725
:104B30003DDF3DDF3DDF3DDF3DDF5EDF5EDF5EDF32
:104B40003EDF3EDF3EDF3EDF5EDF5EDF5EDF5EDFFD
:104B50005EDF5EDF5EDF5EDF5EDF5EDF5EDF5EDF6D
:104B60005EDF5EDF5EDF5EDF5EDF3EDF3EDF3EDFBD
:104B70005EDF5EDF5EDF3EDF3EDF3EDF3EDF3EDFED
:104B80003EDF3EDF5EDF5EDF5EDF5EDF5EDF5EDF7D
:104B90005EDF5EDF5EDF5EDF5EDF5EDF5EDF5EDF2D
:104BA0005EDF5EDF5EDF5EDF5EDF5EDF5EDF5EE715
:104BB0005EE75EE75EE75EE75EE75EE75EE75EE7CD
:104BC0005EE77EE77EE77EE77EE77EE77EE77DE7DE
:104BD0001174F073F06BD06BD06BB06BAF6BAF6BCD
:104BE000AF63AF638F636F638F638F63AF63AF63D5
:104BF000AF63B06BD06BAF6BAF6BB06BAF638F63FA
:104C0000AF6BAF6BB06BAF6BAF63D06BF073117406
:104C1000107411741174527CD48CD48C369D5ABE8D
:104C200039BE1DDF7EE73DDF5EE75EE71DDF3EDF6D
:104C30003DDF3DDF3DDF3DDF3DDF5EDF5EDF5EDF31
:104C40003EDF3EDF3EDF3EDF3EDF3EDF5EDF5EDF3C
:104C50005EDF5EDF5EDF5EDF5EDF5EDF5EDF5EDF6C
:104C60005EDF5EDF5EDF5EDF5EDF3EDF3EDF3EDFBC
:104C70005EDF5EDF5EDF3EDF3EDF3EDF3EDF3EDFEC
:104C80003EDF3EDF5EDF5EDF5EDF5EDF5EDF5EDF7C
:104C90005EDF5EDF5EDF5EDF5EDF5EDF5EDF5EDF2C
:104CA0005EDF5EDF5EDF5EDF5EDF5EDF5EDF5EDF1C
:104CB0005EE75EE75EE75EE75EE75EE75EE75EE7CC
:104CC0005EE75EE77EE77EE77EE77EE77EE77EE7FC
:104CD000527C327C1174F073D06BD06BF06BF0733C
:104CE000D06BF073F073D06BAF6BB06BD06BD06BDD
:104CF000AF63AF63AF63AF63AF6BB06BAF638F6333
:104D0000AF638F63AF638F638F63AF63D06BD06B21
:104D1000F073F073F06B11749384738415955ABE1D
:104D20007ABE1DD79FE75EE75EDF5EE73DDF3EE7C9
:104D30003DDF3DDF3DDF3DDF3EDF3EDF3EDF3EDF8F
:104D40003EDF3EDF3EDF3EDF3EDF3EDF3EDF3EDF7B
:104D50005EDF5EDF5EDF5EDF5EDF5EDF5EDF5EDF6B
:104D60005EDF5EDF5EDF5EDF5EDF5EDF3EDF3EDF9B
:104D70005EDF5EDF5EDF3EDF3EDF3EDF3EDF3EDFEB
:104D80003EDF3EDF5EDF5EDF5EDF5EDF5EDF5EDF7B
:104D90005EDF5EDF5EDF5EDF5EDF5EDF5EDF5EDF2B
:104DA0005EDF5EDF5EDF5EDF5EDF5EDF5EDF5EDF1B
:104DB0005EE75EE75EE75EE75EE75EE75EE75EE7CB
:104DC0005EE75EE75EE77EE77EE77EE77EE77EE71B
:104DD000938493847284527C317C1174F173F073E8
:104DE000F07311743174317411741174F06BD06BF1
:104DF000AF6BAF638F638F63AF63AF63AF638F637B
:104E00008F638F638F638F638F638F638F638F6312
:104E1000AF63AF6BAF6BB06B527C1174B48CF9B5F0
:104E20009BC69BC63EDF7EDF3DDF5EE75EE75EE75B
:104E30003DDF3DDF3DDF3EDF3EDF3EDF3EDF3EDF8D
:104E40003EDF3EDF3EDF3EDF3EDF3EDF3EDF3EDF7A
:104E50005EDF5EDF5EDF5EDF5EDF5EDF5EDF5EDF6A
:104E60005EDF5EDF5EDF5EDF5EDF5EDF5EDF5EDF5A
:104E70005EDF5EDF5EDF3EDF3EDF3EDF3EDF3EDFEA
:104E80003EDF3EDF5EDF5EDF5EDF5EDF5EDF5EDF7A
:104E90005EDF5EDF5EDF5EDF5EDF5EDF5EDF5EDF2A
:104EA0005EDF5EDF5EDF5EDF5EDF5EDF5EDF5EDF1A
:104EB0005EE75EE75EE75EE75EE75EE75EE75EE7CA
:104EC0005EE75EE75EE75EE75EE77EE77EE77EE75A
:104ED000F494F494F48CD48CB3849384727C527CD8
:104EE000527C317411741074117431741174D06B5C
:104EF000B06BAF638F636F638F638F638F636F6319
:104F00006E636E638F638F636F636E5B6E5B6E5BEE
:104F10006E5B6E638F636F63327CF173B48CD8AD5C
:104F2000DCCE7BBE3ED79FE73DDF5EE75EE73DE739
:104F30005EDF5EDF5EDF3EDF3EDF3EDF3EDF3EDF29
:104F40003EDF3EDF3EDF3EDF3EDF3EDF5EDF5EDF39
:104F50005EDF5EDF5EDF5EDF5EDF5EDF5EDF5EDF69
:104F60005EDF5EDF5EDF5EDF5EDF5EDF5EDF5EDF59
:104F70005EDF5EDF5EDF3EDF3EDF3EDF3EDF3EDFE9
:104F80003EDF3EDF5EDF5EDF5EDF5EDF5EDF5EDF79
:104F90005EDF5EDF5EDF5EDF5EDF5EDF5EDF5EDF29
:104FA0005EDF5EDF5EDF5EDF5EDF5EDF5EDF5EDF19
:104FB0005EE75EE75EE75EE75EE75EE75EE75EE7C9
:104FC0005EE75EE75EE75EE75EE75EE77EE77EE779
:104FD000B38CD48CD48CD48CD48CD48CB38CB38C34
:104FE00072843174F06BD06BD06BD06BD06BD06BA4
:104FF000AF6B8F638F636E636E636E636E5B6E5BAE
:105000006E5B4E5B6E638F636E636E5B6E5B4E5B5F
:105010004E5B4E5B8F636E63117CD073B48C98A52E
:105020003ED7BCC65EDF9FE75EDF5EE73EDF3DE763
:105030005EDF5EDF5EDF3EDF3EDF3EDF3EDF3EDF28
:105040003EDF3EDF3EDF3EDF5EDF5EDF5EDF5EDFF8
:105050005EDF5EDF5EDF5EDF5EDF5EDF5EDF5EDF68
:105060005EDF5EDF5EDF5EDF5EDF5EDF5EDF5EDF58
:105070005EDF5EDF5EDF3EDF3EDF3EDF3EDF3EDFE8
:105080003EDF3EDF5EDF5EDF5EDF5EDF5EDF5EDF78
:105090005EDF5EDF5EDF5EDF5EDF5EDF5EDF5EDF28
:1050A0005EDF5EDF5EDF5EDF5EDF5EDF5EDF5EDF18
:1050B0005EE75EE75EE75EE75EE75EE75EE75EE7C8
:1050C0005EE75EE75EE75EE75EE75EE75EE77EE798
:1050D0006E5BAF631174527C72847284527C317C3B
:1050E000517C317431741074D06B8F636E638F6335
:1050F000AF638F638F636F636F636E636E5B6E5BB3
:105100006E5B4E5B6E5B8F636E636E5B6E5B6E5B46
:105110004E5B2E538F634E5BF173B06B9384569D41
:105120003ED7DCC65ED75FD75ED77EE75EDF5EE741
:105130005EDF5EDF5EDF3EDF3EDF3EDF3EDF3EDF27
:105140003EDF3EDF5EDF5EDF5EDF5EDF5EDF5EDFB7
:105150005EDF5EDF5EDF5EDF5EDF5EDF5EDF5EDF67
:105160005EDF5EDF5EDF5EDF5EDF5EDF5EDF5EDF57
:105170005EDF5EDF5EDF3EDF3EDF3EDF3EDF3EDFE7
:105180003EDF3EDF5EDF5EDF5EDF5EDF5EDF5EDF77
:105190005EDF5EDF5EDF5EDF5EDF5EDF5EDF5EDF27
:1051A0005EDF5EDF5EDF5EDF5EDF5EDF5EDF5EDF17
:1051B0005EDF5EDF5EE75EE75EE75EE77EE77EE797
:1051C0007EE77EE77EE77EE77EE77EE77EE77EE7B7
:1051D0008B428B42EC524E5B6E63AF6BF07311747B
:1051E000AF6BCF6BCF6BAF63AF638F636E5B2D53D2
:1051F0004E5B6E636F634E5B4E5B6E5B6E636E5BAE
:105200004E5B6E5B6E5B6E5B6E5B6E5B4E5B4E5BB6
:105210004E5B4E5B6E5B4E63D0736F63327C369534
:105220005ED7FDC6DDBE1DCF9FDF5EDF5EDF3EDFEA
:105230005EDF5EDF5EDF5EDF5EDF3EDF3EDF5EDFC6
:105240005EDF5EDF5EDF3EDF3EDF3EDF3EDF3EDF16
:105250005EDF5EDF5EDF5EDF5EDF5EDF5EDF5EDF66
:105260005EE75EDF5EDF5EDF5EDF5EDF5EDF5EDF4E
:105270003EDF3EDF3EDF3EDF3EDF3EDF3EDF3EDF46
:105280005EDF5EDF5EDF5EDF5EDF5EDF5EDF5EDF36
:105290005EDF5EDF5EDF5EDF5EDF5EDF5EDF5EDF26
:1052A0005EDF5EDF5EDF5EDF5EDF5EDF5EDF5EDF16
:1052B0005EDF5EDF5EDF5EDF5EE75EE77EE77EE7A6
:1052C0007EE77EE77EE77EE77EE77EE77EE77EE7B6
:1052D0004A3A4A3A6A428B42AB4AEC4A2D5B6E5BD1
:1052E0008F638F638F638E636E636E5B4E5B4D5B0C
:1052F0002D5B4E5B4E5B4E5B4E5B4E5B4E5B6E635F
:105300006E5B6E5B4E5B4E5B4E5B4E5B4E5B4E5B15
:105310004E5B4E5B4E5B2E5BAF6B4E63F173D58481
:105320005FD73FCFFDBE9CBEFDCE5ED77FE75EE779
:105330005EDF5EDF5EDF5EDF5EDF5EDF5EDF5EE77D
:105340005EDF5EDF5EDF5EDF3EDF3EDF3EDF3EDFF5
:105350005EDF5EDF5EDF5EDF5EDF5EDF5EDF5EDF65
:105360005EDF5EDF5EDF5EDF5EDF5EDF5EDF5EDF55
:105370003EDF3EDF3EDF3EDF3EDF3EDF3EDF3EDF45
:105380005EDF5EDF5EDF5EDF5EDF5EDF5EDF5EDF35
:105390005EDF5EDF5EDF5EDF5EDF5EDF5EDF5EDF25
:1053A0005EDF5EDF5EDF5EDF5EDF5EDF5EDF5EDF15
:1053B0005EDF5EDF5EDF5EDF5EE75EE75EE77EE7C5
:1053C0007EE77EE77EE77EE77EE77EE77EE77EE7B5
:1053D0004A3A6A426A428B42AB428B428B42CC4A87
:1053E0002D532D5B4D5B2D5B4D5B4E5B4E5B4E5BE2
:1053F0000D530D532D534E5B4E5B2E5B4E5B6E6318
:105400006E5B4E5B4E5B4E5B4E5B4E5B4E5B6E5B14
:105410004E5B2E532E530D536F634E63B06B53741C
:10542000DDBE5FCF1EC7BDB6DDBE1DCF5EDF5EDF5A
:105430005EDF5EDF5EDF5EDF5EDF5EDF5EE75EE774
:105440005EDF5EDF5EDF5EDF3EDF3EDF3EDF3EDFF4
:105450005EDF5EDF5EDF5EDF5EDF5EDF5EDF5EDF64
:105460005EDF5EDF5EDF5EDF5EDF5EDF5EDF5EDF54
:105470005EDF5EDF5EDF5EDF5EDF5EDF5EDF5EDF44
:105480005EDF5EDF5EDF5EDF5EDF5EDF5EDF5EDF34
:105490005EDF5EDF5EDF5EDF5EDF5EDF5EDF5EDF24
:1054A0005EDF5EDF5EDF5EDF5EDF5EDF5EDF5EDF14
:1054B0005EDF5EDF5EDF5EDF5EE75EE75EE75EE7E4
:1054C0007EE77EE77EE77EE77EE77EE77EE77EE7B4
:1054D0006A428B428B42AB42AC4A6A422A3A8B42C6
:1054E000CC4ACC4AEC4AED520D530D532D5B4E5B2A
:1054F0002D530D530D532D5B4E5B4E5B4E5B4E5B40
:105500004E5B4E5B4E5B4E5B2E5B2E5B4E5B6E5B73
:105510004E534E532E530D532E5B4E636F5B126CE6
:105520003BAE3FC73FC73FC7FEBEBCBEFDCE5EDF42
:105530005EE75EDF5EDF5EDF5EDF5EDF5EDF5EDF7B
:105540005EDF5EDF5EDF5EDF5EDF3DDF3DDF3DDFD6
:105550005EDF5EDF5EDF5EDF5EDF5EDF5EDF5EDF63
:105560005EDF5EDF5EDF5EDF5EDF5EDF5EDF5EDF53
:105570005EDF5EDF5EDF5EDF5EDF5EDF5EDF5EDF43
:105580005EDF5EDF5EDF5EDF5EDF5EDF5EDF5EDF33
:105590005EDF5EDF5EDF5EDF5EDF5EDF5EDF5EDF23
:1055A0005EDF5EDF5EDF5EDF5EDF5EDF5EDF5EDF13
:1055B0005EDF5EDF5EDF5EDF5EDF5EE75EE75EE7EB
:1055C0005EE77EE77EE77EE77EE77EE77EE77EE7D3
:1055D000CC4ACC4AAB428B42AC4A6B424A3A6A4212
:1055E0008B428B42AB4ACC4ACC4AEC4A0D532D53EA
:1055F0002E5B2D5B0D530D532D534E5B4E5B2E5B7F
:105600004E5B4E5B4E5B4E5B4E5B2E5B4E5B4E5B72
:105610004E532E532D53ED520D5B4E5B2E53B15B0B
:10562000D99D1FBF3FBF5FC7FEBEBDBEDDCE5EDFE3
:105630005EDF5EDF5EDF5EDF5EDF5EDF3EDF3EDFC2
:105640005EDF5EDF5EDF5EDF5DDF5DDF3DE73DDFAE
:105650005EDF5EDF5EDF5EDF5EDF5EDF5EDF5EDF62
:105660005EDF5EDF5EDF5EDF5EDF5EDF5EDF5EDF52
:105670005EDF5EDF5EDF5EDF5EDF5EDF5EDF5EDF42
:105680005EDF5EDF5EDF5EDF5EDF5EDF5EDF5EDF32
:105690005EDF5EDF5EDF5EDF5EDF5EDF5EDF5EDF22
:1056A0005EDF5EDF5EDF5EDF5EDF5EDF5EDF5EDF12
:1056B0005EDF5EDF5EDF5EDF5EDF5EE75EE75EE7EA
:1056C0005EE75EE75EE77EE77EE77EE77EE77EE712
:1056D000EC52EC52CC4ACC4ACC4AAB4A6A426A42BF
:1056E0006A3A6A428B42AB42AB4ACC4AEC4A0D530F
:1056F0004E5B4E5B2D5B0D532D534E5B4E5B2E5B15
:105700004E5B4E5B4E5B4E5B4E5B2E5B2D5B4E5B92
:105710002E532E530D53ED52CC522E5BED4A705347
:105720003785FEB6FEB61FBFFEBE1FC71ECF1ECFFB
:105730001DDF3EDF5EDF5EE75EE75EDF3EDF5EDFF2
:105740005EDF5EDF5EDF5DDF5DDF3DE73DE73DE7BE
:105750005EDF5EDF5EDF5EDF5EDF5EDF5EDF5EDF61
:105760005EDF5EDF5EDF5EDF5EDF5EDF5EDF5EDF51
:105770005EDF5EDF5EDF5EDF5EDF5EDF5EDF5EDF41
:105780005EDF5EDF5EDF5EDF5EDF5EDF5EDF5EDF31
:105790005EDF5EDF5EDF5EDF5EDF5EDF5EDF5EDF21
:1057A0005EDF5EDF5EDF5EDF5EDF5EDF5EDF5EDF11
:1057B0005EDF5EDF5EDF5EDF5EDF5EDF5EDF5EDF01
:1057C0005EE75EE75EE75EE77EE77EE77EE77EE731
:1057D000AC4ACC4ACC4ACC4ACC4AAB4A8B426A3A15
:1057E0006B426B426B428B428B42AB42CC4AEC52D7
:1057F0002D532D5B2E5B2D5B2D532E5B4E5B4E5B35
:105800004E5B4E5B4E5B4E5B4E5B2E5B2D532D5BBA
:105810004E530D530D53ED52AC4A0D53AC422F4B2A
:10582000B574BEAE9EA6BEAE9DAE3FC73ECFDDCE2A
:10583000FCD61DDF5EDF7EE75EE75EDF5EDF5EE7F4
:105840005EDF5EDF5EDF5DDF5DDF3DE73DE73DE7BD
:105850005EDF5EDF5EDF5EDF5EDF5EDF5EDF5EDF60
:105860005EDF5EDF5EDF5EDF5EE75EE75EE75EE730
:105870005EDF5EDF5EDF5EDF5EDF5EDF5EDF5EDF40
:105880003EDF3EDF3EDF3EDF3EDF3EDF3EDF3EDF30
:105890005EDF5EDF5EDF5EDF5EDF5EDF5EDF5EDF20
:1058A0005EDF5EDF5EDF5EDF5EDF5EDF5EDF5EDF10
:1058B0005EDF5EDF5EDF5EDF5EDF5EDF5EDF5EDF00
:1058C0005EE75EE75EE75EE77EE77EE77EE77EE730
:1058D000AC4AAC4AAC4AAC4A8B42AC4ACC4AAC4A21
:1058E0008B428B426B426B428B428B42CC4AED4ADD
:1058F0000D530D532E5B4E5B2E5B0D532E5B6E6373
:105900006E5B4E5B4E5B4E5B4E5B4E5B2D532D5B79
:105910006F5B2E530D530D53AC4A2E5B8C420E43DE
:10592000756CBEAE7D9E7DA63C9EDEBEFEC6FDCEE7
:10593000BCCEFDD65EDF7EE75EE75EDF5EE75EE75C
:105940005EDF5EDF5EDF5DDF5DDF3DE73DE73DE7BC
:105950005EDF5EDF5EDF5EDF5EDF5EDF5EDF5EDF5F
:105960005EDF5EDF5EE75EE75EE75EE75EE75EE71F
:105970005EDF5EDF5EDF5EDF5EDF5EDF5EDF5EDF3F
:105980003EDF3EDF3EDF3EDF3EDF3EDF3EDF3EDF2F
:105990005EDF5EDF5EDF5EDF5EDF5EDF5EDF5EDF1F
:1059A0005EDF5EDF5EDF5EDF5EDF5EDF5EDF5EDF0F
:1059B0005EDF5EDF5EDF5EDF5EDF5EDF5EDF5EDFFF
:1059C0005EE75EE75EE75EE75EE77EE77EE77EE74F
:1059D0000D538B428B42EC4AEC4ACC4ACC4ACC4A1F
:1059E000CC4ACC4AAC4AAB428B428B42AB42AB4A2C
:1059F000EC520D532D5B4E5B4E5B4E5B4E5B2D5B55
:105A00004E5B4E5B4E5B2E5B4E5B6E5B4E5B0D5397
:105A10004E5B0D5B0E5BCD4ACC422D4BCC42ED4A2A
:105A2000F1639DA65C8E5D8E5E965E9EFFB6DEAED9
:105A3000DFBE1FBF1FBF5FC73EC75ED75EE75EEF1B
:105A40003DEF5DEF5DE75DDF5DDF3DDF3DE73EEFB5
:105A50005DD77DDF9DDF7DDF5DD77EDF5EDF3DD7FC
:105A60005EDF5EDF5EDF7EDF7EE75DDF5DDF5DE701
:105A70005EE75EE75EE75EE73EE73EE71EE71EE7BE
:105A80003EE75EDF5DDF5DDF5DDF3DE73DEF1DEFA4
:105A90005EDF5EDF5EDF5EDF5EDF5EDF5EDF5DDF1F
:105AA0005EE75EE75DE75DE75DE75DE75DE75DE7D4
:105AB0005EDF5EDF5EDF5EDF5EDF5EDF5EDF5EDFFE
:105AC0005EDF5EDF5EE75EE75EE75EE77EE77EE77E
:105AD0008B42AB42AB42ED524E5B0D53CC4A0D5361
